{
  "_format": "hh-sol-artifact-1",
  "contractName": "ApprovalRevokeHelper",
  "sourceName": "contracts/ApprovalRevokeHelper.sol",
  "abi": [
    {
      "inputs": [],
      "stateMutability": "nonpayable",
      "type": "constructor"
    },
    {
      "inputs": [
        {
          "internalType": "address",
          "name": "owner",
          "type": "address"
        }
      ],
      "name": "OwnableInvalidOwner",
      "type": "error"
    },
    {
      "inputs": [
        {
          "internalType": "address",
          "name": "account",
          "type": "address"
        }
      ],
      "name": "OwnableUnauthorizedAccount",
      "type": "error"
    },
    {
      "inputs": [],
      "name": "ReentrancyGuardReentrantCall",
      "type": "error"
    },
    {
      "anonymous": false,
      "inputs": [
        {
          "indexed": true,
          "internalType": "address",
          "name": "token",
          "type": "address"
        },
        {
          "indexed": true,
          "internalType": "address",
          "name": "spender",
          "type": "address"
        },
        {
          "indexed": false,
          "internalType": "uint256",
          "name": "amount",
          "type": "uint256"
        }
      ],
      "name": "ApprovalRevoked",
      "type": "event"
    },
    {
      "anonymous": false,
      "inputs": [
        {
          "indexed": true,
          "internalType": "address",
          "name": "user",
          "type": "address"
        },
        {
          "indexed": false,
          "internalType": "uint256",
          "name": "approvalCount",
          "type": "uint256"
        }
      ],
      "name": "BatchRevokeInitiated",
      "type": "event"
    },
    {
      "anonymous": false,
      "inputs": [
        {
          "indexed": true,
          "internalType": "address",
          "name": "token",
          "type": "address"
        },
        {
          "indexed": true,
          "internalType": "address",
          "name": "spender",
          "type": "address"
        }
      ],
      "name": "EmergencyRevoke",
      "type": "event"
    },
    {
      "anonymous": false,
      "inputs": [
        {
          "indexed": true,
          "internalType": "address",
          "name": "previousOwner",
          "type": "address"
        },
        {
          "indexed": true,
          "internalType": "address",
          "name": "newOwner",
          "type": "address"
        }
      ],
      "name": "OwnershipTransferred",
      "type": "event"
    },
    {
      "inputs": [
        {
          "internalType": "address[]",
          "name": "_tokens",
          "type": "address[]"
        },
        {
          "internalType": "address[]",
          "name": "_spenders",
          "type": "address[]"
        }
      ],
      "name": "batchRevokeApprovals",
      "outputs": [],
      "stateMutability": "nonpayable",
      "type": "function"
    },
    {
      "inputs": [
        {
          "internalType": "address",
          "name": "_user",
          "type": "address"
        },
        {
          "internalType": "address",
          "name": "_token",
          "type": "address"
        },
        {
          "internalType": "address",
          "name": "_spender",
          "type": "address"
        }
      ],
      "name": "emergencyRevoke",
      "outputs": [],
      "stateMutability": "nonpayable",
      "type": "function"
    },
    {
      "inputs": [
        {
          "internalType": "address",
          "name": "_user",
          "type": "address"
        },
        {
          "internalType": "address[]",
          "name": "_tokens",
          "type": "address[]"
        },
        {
          "internalType": "address[]",
          "name": "_spenders",
          "type": "address[]"
        }
      ],
      "name": "getActiveApprovalsSummary",
      "outputs": [
        {
          "internalType": "uint256",
          "name": "totalActive",
          "type": "uint256"
        },
        {
          "internalType": "uint256",
          "name": "totalValue",
          "type": "uint256"
        },
        {
          "internalType": "address[]",
          "name": "activeTokens",
          "type": "address[]"
        },
        {
          "internalType": "address[]",
          "name": "activeSpenders",
          "type": "address[]"
        }
      ],
      "stateMutability": "view",
      "type": "function"
    },
    {
      "inputs": [
        {
          "internalType": "address",
          "name": "_user",
          "type": "address"
        }
      ],
      "name": "getApprovalCount",
      "outputs": [
        {
          "internalType": "uint256",
          "name": "",
          "type": "uint256"
        }
      ],
      "stateMutability": "view",
      "type": "function"
    },
    {
      "inputs": [
        {
          "internalType": "address",
          "name": "_user",
          "type": "address"
        },
        {
          "internalType": "address",
          "name": "_token",
          "type": "address"
        },
        {
          "internalType": "address",
          "name": "_spender",
          "type": "address"
        }
      ],
      "name": "getCurrentAllowance",
      "outputs": [
        {
          "internalType": "uint256",
          "name": "",
          "type": "uint256"
        }
      ],
      "stateMutability": "view",
      "type": "function"
    },
    {
      "inputs": [
        {
          "internalType": "address",
          "name": "_user",
          "type": "address"
        }
      ],
      "name": "getUserApprovals",
      "outputs": [
        {
          "components": [
            {
              "internalType": "address",
              "name": "token",
              "type": "address"
            },
            {
              "internalType": "address",
              "name": "spender",
              "type": "address"
            },
            {
              "internalType": "uint256",
              "name": "amount",
              "type": "uint256"
            },
            {
              "internalType": "bool",
              "name": "isRevoked",
              "type": "bool"
            }
          ],
          "internalType": "struct ApprovalRevokeHelper.ApprovalInfo[]",
          "name": "",
          "type": "tuple[]"
        }
      ],
      "stateMutability": "view",
      "type": "function"
    },
    {
      "inputs": [
        {
          "internalType": "address",
          "name": "_user",
          "type": "address"
        },
        {
          "internalType": "address[]",
          "name": "_tokens",
          "type": "address[]"
        },
        {
          "internalType": "address[]",
          "name": "_spenders",
          "type": "address[]"
        }
      ],
      "name": "hasActiveApprovals",
      "outputs": [
        {
          "internalType": "bool",
          "name": "",
          "type": "bool"
        }
      ],
      "stateMutability": "view",
      "type": "function"
    },
    {
      "inputs": [
        {
          "internalType": "address",
          "name": "_user",
          "type": "address"
        },
        {
          "internalType": "address",
          "name": "_token",
          "type": "address"
        },
        {
          "internalType": "address",
          "name": "_spender",
          "type": "address"
        }
      ],
      "name": "isApprovalRevoked",
      "outputs": [
        {
          "internalType": "bool",
          "name": "",
          "type": "bool"
        }
      ],
      "stateMutability": "view",
      "type": "function"
    },
    {
      "inputs": [
        {
          "internalType": "address",
          "name": "",
          "type": "address"
        },
        {
          "internalType": "address",
          "name": "",
          "type": "address"
        },
        {
          "internalType": "address",
          "name": "",
          "type": "address"
        }
      ],
      "name": "isRevoked",
      "outputs": [
        {
          "internalType": "bool",
          "name": "",
          "type": "bool"
        }
      ],
      "stateMutability": "view",
      "type": "function"
    },
    {
      "inputs": [],
      "name": "owner",
      "outputs": [
        {
          "internalType": "address",
          "name": "",
          "type": "address"
        }
      ],
      "stateMutability": "view",
      "type": "function"
    },
    {
      "inputs": [],
      "name": "renounceOwnership",
      "outputs": [],
      "stateMutability": "nonpayable",
      "type": "function"
    },
    {
      "inputs": [
        {
          "internalType": "address",
          "name": "_token",
          "type": "address"
        },
        {
          "internalType": "address",
          "name": "_spender",
          "type": "address"
        }
      ],
      "name": "revokeApproval",
      "outputs": [],
      "stateMutability": "nonpayable",
      "type": "function"
    },
    {
      "inputs": [
        {
          "internalType": "address",
          "name": "newOwner",
          "type": "address"
        }
      ],
      "name": "transferOwnership",
      "outputs": [],
      "stateMutability": "nonpayable",
      "type": "function"
    },
    {
      "inputs": [
        {
          "internalType": "address",
          "name": "",
          "type": "address"
        },
        {
          "internalType": "uint256",
          "name": "",
          "type": "uint256"
        }
      ],
      "name": "userApprovals",
      "outputs": [
        {
          "internalType": "address",
          "name": "token",
          "type": "address"
        },
        {
          "internalType": "address",
          "name": "spender",
          "type": "address"
        },
        {
          "internalType": "uint256",
          "name": "amount",
          "type": "uint256"
        },
        {
          "internalType": "bool",
          "name": "isRevoked",
          "type": "bool"
        }
      ],
      "stateMutability": "view",
      "type": "function"
    }
  ],
  "bytecode": "0x6080806040523461007e5733156100685760008054336001600160a01b03198216811783556040519290916001600160a01b0316907f8be0079c531659141344cd1fd0a4f28419497f9722a3daafe3b4186f6b6457e09080a3600180556113b190816100848239f35b631e4fbdf760e01b815260006004820152602490fd5b600080fdfe608080604052600436101561001357600080fd5b60003560e01c90816303a2c9bc14610deb575080631c2bc27b14610ad7578063715018a614610a7e578063733f769b14610a5857806373b41532146108d357806373bfdb0a146109405780638322a2aa146108d35780638da5cb5b146108aa578063a4832e651461082d578063c835faa1146106cb578063c9e45af91461042f578063d3bfe76a14610186578063d8186b3b1461014c5763f2fde38b146100b957600080fd5b34610147576020366003190112610147576100d2610e9c565b6100da610fde565b6001600160a01b0390811690811561012e57600054826bffffffffffffffffffffffff60a01b821617600055167f8be0079c531659141344cd1fd0a4f28419497f9722a3daafe3b4186f6b6457e0600080a3005b604051631e4fbdf760e01b815260006004820152602490fd5b600080fd5b34610147576020366003190112610147576001600160a01b0361016d610e9c565b1660005260026020526020604060002054604051908152f35b346101475760403660031901126101475761019f610e9c565b6101a7610eb2565b906101b061119a565b6001600160a01b039081169061020c906101cb83151561100a565b8316926101d984151561104e565b604051636eb1769f60e11b81523360048201526001600160a01b0390911660248201526020918290829081906044820190565b0381865afa90811561038257600091610402575b5080156103c55733600052600382526040600020836000528252604060002084600052825260ff6040600020541661038e5760405163095ea7b360e01b81528460048201526000602482015282816044816000885af190811561038257600091610355575b501561032057907ffd2589100207b846cb6d5fba06b4f3f49ba0e8851e16c95eec61424545834689913360005260038252604060002084600052825260406000208560005282526040600020600160ff1982541617905533600052600282526103136040600020604051906102f98261109a565b868252878583015283604083015260016060830152611106565b604051908152a360018055005b60405162461bcd60e51b815260048101839052600d60248201526c14995d9bdad94819985a5b1959609a1b6044820152606490fd5b6103759150833d851161037b575b61036d81836110cc565b8101906110ee565b85610285565b503d610363565b6040513d6000823e3d90fd5b60405162461bcd60e51b815260048101839052600f60248201526e105b1c9958591e481c995d9bdad959608a1b6044820152606490fd5b60405162461bcd60e51b81526004810183905260156024820152744e6f20617070726f76616c20746f207265766f6b6560581b6044820152606490fd5b90508181813d8311610428575b61041981836110cc565b81010312610147575184610220565b503d61040f565b346101475761043d36610f0f565b9261044c8484969394146111bd565b60009360009560005b8181106105db575061046686611335565b9361047087611335565b9560009260005b8181106104b8578a8a6104b48b6104a68c60405195869586526020860152608060408601526080850190610fa1565b908382036060850152610fa1565b0390f35b61051c6001600160a01b036020816104d96104d486888e611211565b611221565b166104e86104d4868c8a611211565b604051636eb1769f60e11b81526001600160a01b03808b166004830152909116602482015293849190829081906044820190565b03915afa918215610382578a8a8d948b936000916105a0575b5061054e575b505050505061054990611202565b610477565b8961057a6104d48861059398968896829f99610580878f6105499f6104d49061057a9261058a9d611211565b93611367565b911690528c611211565b91169052611202565b949050888c878a8a61053b565b9550505050506020823d6020116105d3575b816105bf602093836110cc565b8101031261014757878a8a8d945138610535565b3d91506105b2565b61063d6001600160a01b036105f46104d4848689611211565b166106036104d484878b611211565b604051636eb1769f60e11b81526001600160a01b03808a166004830152909116602482015260209290918391839190829081906044820190565b03915afa9182156103825760009261069d575b505080610667575b5061066290611202565b610455565b9661067490989198611202565b9681018091116106875796610662610658565b634e487b7160e01b600052601160045260246000fd5b90809250813d83116106c4575b6106b481836110cc565b8101031261014757518980610650565b503d6106aa565b34610147576060366003190112610147576106e4610e9c565b6106ec610eb2565b6106f4610ec8565b6106fc610fde565b6001600160a01b03918383169081156107f15783169261071d84151561100a565b82169361072b85151561104e565b604051636eb1769f60e11b81526001600160a01b039182166004820152921660248301526020918281604481875afa908115610382576000916107c4575b5061077057005b60005260038152604060002082600052815260406000209083600052526040600020600160ff198254161790557fb04ceabfb49123a88f84f1f208548958771d4bb6245e6339c20bebd30d6f0e4c600080a3005b90508281813d83116107ea575b6107db81836110cc565b81010312610147575185610769565b503d6107d1565b60405162461bcd60e51b8152602060048201526014602482015273496e76616c69642075736572206164647265737360601b6044820152606490fd5b3461014757604036600319011261014757610846610e9c565b6024359060018060a01b038091166000526002602052604060002080548310156101475760809261087691610f6f565b5081815416916001820154169060ff6003600283015492015416916040519384526020840152604083015215156060820152f35b34610147576000366003190112610147576000546040516001600160a01b039091168152602090f35b34610147576060366003190112610147576108ec610e9c565b6108f4610eb2565b906108fd610ec8565b9160018060a01b038092166000526003602052816040600020911660005260205260406000209116600052602052602060ff604060002054166040519015158152f35b3461014757602080600319360112610147576001600160a01b039081610964610e9c565b16600052600290818152604060002090815461097f81611235565b9361098d60405195866110cc565b81855260009384528284208386019491855b848410610a0a57505050505060405192818401908285525180915260408401929160005b8281106109d05785850386f35b83518051881686528083015188168684015260408082015190870152606090810151151590860152608090940193928101926001016109c3565b60048660019260409a989a51610a1f8161109a565b8c87541681528c85880154168382015285870154604082015260ff6003880154161515606082015281520193019301929196949661099f565b34610147576020610a74610a6b36610f0f565b9392909261124d565b6040519015158152f35b3461014757600036600319011261014757610a97610fde565b600080546001600160a01b0319811682556001600160a01b03167f8be0079c531659141344cd1fd0a4f28419497f9722a3daafe3b4186f6b6457e08280a3005b346101475760403660031901126101475767ffffffffffffffff60043581811161014757610b09903690600401610ede565b9190602491823590811161014757610b25903690600401610ede565b610b2d61119a565b610b388186146111bd565b8415610db85760328511610d7f5760009460005b818110610b8657866040519081527f13f35afc13158c558ca737bf6ef6c50b9d057ce6d417e06b7ecdfd90002ffd1b60203392a260018055005b610b946104d4828488611211565b610ba26104d4838688611211565b906001600160a01b0390811690610bba82151561100a565b821690610bc882151561104e565b604051636eb1769f60e11b81523360048201526001600160a01b0393909316602484015260208084604481855afa93841561038257600094610d50575b5083151580610d22575b610c26575b50505050610c2190611202565b610b4c565b60405163095ea7b360e01b815283600482015260008b82015281816044816000875af190811561038257600091610d05575b5015610c14577ffd2589100207b846cb6d5fba06b4f3f49ba0e8851e16c95eec6142454583468990610cf4859c610cef610c21989733600052600385526040600020876000528552604060002088600052855260406000206001908160ff19825416179055336000526002865260406000209060405192610cd88461109a565b8984528a8885015260408401526060830152611106565b611202565b9b604051908152a390888080610c14565b610d1c9150823d841161037b5761036d81836110cc565b8c610c58565b5033600052600381526040600020826000528152604060002083600052815260ff6040600020541615610c0f565b9080945081813d8311610d78575b610d6881836110cc565b810103126101475751928b610c05565b503d610d5e565b60405162461bcd60e51b81526020600482015260128186015271546f6f206d616e7920617070726f76616c7360701b6044820152606490fd5b60405162461bcd60e51b815260206004820152600c818601526b456d7074792061727261797360a01b6044820152606490fd5b3461014757606036600319011261014757602081610e07610e9c565b8180610e44610e14610eb2565b93610e1d610ec8565b636eb1769f60e11b84526001600160a01b0391821660048501521660248301526044820190565b03916001600160a01b03165afa801561038257600090610e6a575b602090604051908152f35b506020813d8211610e94575b81610e83602093836110cc565b810103126101475760209051610e5f565b3d9150610e76565b600435906001600160a01b038216820361014757565b602435906001600160a01b038216820361014757565b604435906001600160a01b038216820361014757565b9181601f840112156101475782359167ffffffffffffffff8311610147576020808501948460051b01011161014757565b906060600319830112610147576004356001600160a01b0381168103610147579167ffffffffffffffff916024358381116101475782610f5191600401610ede565b9390939260443591821161014757610f6b91600401610ede565b9091565b8054821015610f8b5760005260206000209060021b0190600090565b634e487b7160e01b600052603260045260246000fd5b90815180825260208080930193019160005b828110610fc1575050505090565b83516001600160a01b031685529381019392810192600101610fb3565b6000546001600160a01b03163303610ff257565b60405163118cdaa760e01b8152336004820152602490fd5b1561101157565b60405162461bcd60e51b8152602060048201526015602482015274496e76616c696420746f6b656e206164647265737360581b6044820152606490fd5b1561105557565b60405162461bcd60e51b815260206004820152601760248201527f496e76616c6964207370656e64657220616464726573730000000000000000006044820152606490fd5b6080810190811067ffffffffffffffff8211176110b657604052565b634e487b7160e01b600052604160045260246000fd5b90601f8019910116810190811067ffffffffffffffff8211176110b657604052565b90816020910312610147575180151581036101475790565b8054680100000000000000008110156110b65761112891600182018155610f6f565b61118457600360609160018060a01b03808551166bffffffffffffffffffffffff60a01b90818454161783556001830191602087015116908254161790556040840151600282015501910151151560ff80198354169116179055565b634e487b7160e01b600052600060045260246000fd5b6002600154146111ab576002600155565b604051633ee5aeb560e01b8152600490fd5b156111c457565b60405162461bcd60e51b8152602060048201526016602482015275082e4e4c2f2e640d8cadccee8d040dad2e6dac2e8c6d60531b6044820152606490fd5b60001981146106875760010190565b9190811015610f8b5760051b0190565b356001600160a01b03811681036101475790565b67ffffffffffffffff81116110b65760051b60200190565b91939061125b8286146111bd565b60005b85811061127057505050505050600090565b6001600160a01b036112866104d4838986611211565b166112956104d4838689611211565b60408051636eb1769f60e11b81526001600160a01b03888116600483015292909216602483015290916020908190849060449082905afa91821561132b57506000916112fc575b5090506112f1576112ec90611202565b61125e565b505050505050600190565b82813d8311611324575b61131081836110cc565b8101031261132157505180386112dc565b80fd5b503d611306565b513d6000823e3d90fd5b9061133f82611235565b61134c60405191826110cc565b828152809261135d601f1991611235565b0190602036910137565b8051821015610f8b5760209160051b01019056fea2646970667358221220544fb1a26fb359455f357bb664c675aaab04633803438ac27cd6a45f7b6df5a164736f6c63430008140033",
  "linkReferences": {},
  "deployedLinkReferences": {}
}