{"contracts/GuardianController.sol":{"GuardianController":{"abi":[{"inputs":[{"internalType":"address","name":"_smartAccount","type":"address"}],"stateMutability":"nonpayable","type":"constructor"},{"inputs":[{"internalType":"address","name":"owner","type":"address"}],"name":"OwnableInvalidOwner","type":"error"},{"inputs":[{"internalType":"address","name":"account","type":"address"}],"name":"OwnableUnauthorizedAccount","type":"error"},{"inputs":[],"name":"ReentrancyGuardReentrantCall","type":"error"},{"anonymous":false,"inputs":[{"indexed":true,"internalType":"address","name":"guardian","type":"address"},{"indexed":false,"internalType":"uint256","name":"weight","type":"uint256"}],"name":"GuardianAdded","type":"event"},{"anonymous":false,"inputs":[{"indexed":true,"internalType":"address","name":"guardian","type":"address"}],"name":"GuardianRemoved","type":"event"},{"anonymous":false,"inputs":[{"indexed":true,"internalType":"address","name":"guardian","type":"address"},{"indexed":false,"internalType":"uint256","name":"newWeight","type":"uint256"}],"name":"GuardianWeightUpdated","type":"event"},{"anonymous":false,"inputs":[{"indexed":true,"internalType":"address","name":"previousOwner","type":"address"},{"indexed":true,"internalType":"address","name":"newOwner","type":"address"}],"name":"OwnershipTransferred","type":"event"},{"anonymous":false,"inputs":[{"indexed":true,"internalType":"address","name":"guardian","type":"address"},{"indexed":true,"internalType":"address","name":"newSigner","type":"address"}],"name":"RecoveryApproved","type":"event"},{"anonymous":false,"inputs":[],"name":"RecoveryCancelled","type":"event"},{"anonymous":false,"inputs":[{"indexed":true,"internalType":"address","name":"oldSigner","type":"address"},{"indexed":true,"internalType":"address","name":"newSigner","type":"address"}],"name":"RecoveryExecuted","type":"event"},{"anonymous":false,"inputs":[{"indexed":true,"internalType":"address","name":"newSigner","type":"address"},{"indexed":false,"internalType":"uint256","name":"timestamp","type":"uint256"}],"name":"RecoveryInitiated","type":"event"},{"inputs":[{"internalType":"address","name":"_guardian","type":"address"},{"internalType":"uint256","name":"_weight","type":"uint256"}],"name":"addGuardian","outputs":[],"stateMutability":"nonpayable","type":"function"},{"inputs":[{"internalType":"address","name":"_newSigner","type":"address"}],"name":"approveRecovery","outputs":[],"stateMutability":"nonpayable","type":"function"},{"inputs":[],"name":"cancelRecovery","outputs":[],"stateMutability":"nonpayable","type":"function"},{"inputs":[],"name":"currentRecovery","outputs":[{"internalType":"address","name":"newSigner","type":"address"},{"internalType":"uint256","name":"timestamp","type":"uint256"},{"internalType":"bool","name":"executed","type":"bool"},{"internalType":"uint256","name":"approvalCount","type":"uint256"}],"stateMutability":"view","type":"function"},{"inputs":[],"name":"getAllGuardians","outputs":[{"internalType":"address[]","name":"","type":"address[]"}],"stateMutability":"view","type":"function"},{"inputs":[{"internalType":"address","name":"_guardian","type":"address"}],"name":"getGuardianInfo","outputs":[{"internalType":"bool","name":"isActive","type":"bool"},{"internalType":"uint256","name":"weight","type":"uint256"},{"internalType":"uint256","name":"lastActive","type":"uint256"}],"stateMutability":"view","type":"function"},{"inputs":[],"name":"getRecoveryStatus","outputs":[{"internalType":"address","name":"newSigner","type":"address"},{"internalType":"uint256","name":"timestamp","type":"uint256"},{"internalType":"bool","name":"executed","type":"bool"},{"internalType":"uint256","name":"approvalCount","type":"uint256"},{"internalType":"bool","name":"inProgress","type":"bool"}],"stateMutability":"view","type":"function"},{"inputs":[{"internalType":"uint256","name":"","type":"uint256"}],"name":"guardianList","outputs":[{"internalType":"address","name":"","type":"address"}],"stateMutability":"view","type":"function"},{"inputs":[{"internalType":"address","name":"","type":"address"}],"name":"guardians","outputs":[{"internalType":"address","name":"guardian","type":"address"},{"internalType":"bool","name":"isActive","type":"bool"},{"internalType":"uint256","name":"weight","type":"uint256"},{"internalType":"uint256","name":"lastActive","type":"uint256"}],"stateMutability":"view","type":"function"},{"inputs":[{"internalType":"address","name":"_guardian","type":"address"}],"name":"hasGuardianApproved","outputs":[{"internalType":"bool","name":"","type":"bool"}],"stateMutability":"view","type":"function"},{"inputs":[{"internalType":"address","name":"_newSigner","type":"address"}],"name":"initiateRecovery","outputs":[],"stateMutability":"nonpayable","type":"function"},{"inputs":[],"name":"owner","outputs":[{"internalType":"address","name":"","type":"address"}],"stateMutability":"view","type":"function"},{"inputs":[],"name":"recoveryDelay","outputs":[{"internalType":"uint256","name":"","type":"uint256"}],"stateMutability":"view","type":"function"},{"inputs":[],"name":"recoveryInProgress","outputs":[{"internalType":"bool","name":"","type":"bool"}],"stateMutability":"view","type":"function"},{"inputs":[{"internalType":"address","name":"_guardian","type":"address"}],"name":"removeGuardian","outputs":[],"stateMutability":"nonpayable","type":"function"},{"inputs":[],"name":"renounceOwnership","outputs":[],"stateMutability":"nonpayable","type":"function"},{"inputs":[],"name":"requiredWeight","outputs":[{"internalType":"uint256","name":"","type":"uint256"}],"stateMutability":"view","type":"function"},{"inputs":[],"name":"totalGuardianWeight","outputs":[{"internalType":"uint256","name":"","type":"uint256"}],"stateMutability":"view","type":"function"},{"inputs":[{"internalType":"address","name":"newOwner","type":"address"}],"name":"transferOwnership","outputs":[],"stateMutability":"nonpayable","type":"function"},{"inputs":[{"internalType":"address","name":"_guardian","type":"address"},{"internalType":"uint256","name":"_newWeight","type":"uint256"}],"name":"updateGuardianWeight","outputs":[],"stateMutability":"nonpayable","type":"function"}],"evm":{"bytecode":{"linkReferences":{},"object":"6080346100ca57601f61107738819003918201601f19168301916001600160401b038311848410176100cf578084926020946040528339810103126100ca57516001600160a01b0390818116908190036100ca5780156100b157600080546001600160a01b03198116831782556040519316907f8be0079c531659141344cd1fd0a4f28419497f9722a3daafe3b4186f6b6457e09080a360018055610e106006556002600555610f9190816100e68239f35b604051631e4fbdf760e01b815260006004820152602490fd5b600080fd5b634e487b7160e01b600052604160045260246000fdfe6080604081815260048036101561001557600080fd5b600092833560e01c9081630633b14a14610cf6575080630ba234d614610ca0578063111e531314610aef57806311448b4014610a75578063124f8d9c14610a215780631415078e14610a025780633758ca7a146109e35780635ec005fa146109a35780637140415614610802578063715018a6146107a857806374a2bc0a1461076a5780638da5cb5b14610742578063adb0c9c414610696578063b9b87df0146105a3578063cbc3b3c21461036e578063d5ce9aad146101e2578063db16330d146101be578063dfad4115146101a1578063e8f0a74f146101575763f2fde38b146100ff57600080fd5b3461015357602036600319011261015357610118610d54565b91610121610dbc565b6001600160a01b0383161561013d578361013a84610de8565b80f35b51631e4fbdf760e01b8152908101839052602490fd5b8280fd5b50503461019d578160031936011261019d5760809060018060a01b0360075416906008549060ff60095416600b5492825194855260208501521515908301526060820152f35b5080fd5b503461015357826003193601126101535760209250549051908152f35b50503461019d578160031936011261019d5760209060ff600c541690519015158152f35b509034610153576020908160031936011261036a576101ff610d54565b923385526002835261021960ff8387205460a01c16610ed2565b600c549060ff8216610327576001600160a01b039485169485156102ef5786541685146102a15750907f8a9bdbd6fa6536bd7e02875d089a0604de2d92780294abc78536d93fd6c95b7c9291600160ff1980921617600c55846bffffffffffffffffffffffff60a01b6007541617600755426008556009541660095584600b5551428152a280f35b825162461bcd60e51b8152908101849052602260248201527f4e6577207369676e65722063616e6e6f742062652063757272656e74206f776e60448201526132b960f11b6064820152608490fd5b835162461bcd60e51b8152808301869052601260248201527124b73b30b634b2103732bb9039b4b3b732b960711b6044820152606490fd5b825162461bcd60e51b8152908101849052601c60248201527f5265636f7665727920616c726561647920696e2070726f6772657373000000006044820152606490fd5b8380fd5b509034610153576020908160031936011261036a5761038b610d54565b338552600283526103a460ff8387205460a01c16610ed2565b6103b260ff600c5416610f0f565b6007546001600160a01b03939184169190841682900361056b57338652600a815260ff8387205416610536576103ed60085460065490610e61565b42106104fb57338652600a81528286209260ff19936001858254161790556002825261042160018289200154600b54610e61565b9081600b555192337f10c6775f0265d0cb459912547a8aaffb6c41c309be8482a12a66ed15774f7ea58980a3600554111561045a578580f35b6009549460ff86166104bc5750505060018183865416941617600955600c5416600c5561048a8160075416610de8565b60075416907f60f9f98be64687700419cfa6fdd7877bc88c6daeb10bc664a2be9fdd6b0c79218380a338808080808580f35b62461bcd60e51b8352820152601960248201527f5265636f7665727920616c726561647920657865637574656400000000000000604482015260649150fd5b8460649184519162461bcd60e51b83528201526016602482015275149958dbdd995c9e4819195b185e481b9bdd081b595d60521b6044820152fd5b8460649184519162461bcd60e51b8352820152601060248201526f105b1c9958591e48185c1c1c9bdd995960821b6044820152fd5b8460649184519162461bcd60e51b8352820152601360248201527209ccaee40e6d2cedccae440dad2e6dac2e8c6d606b1b6044820152fd5b509134610693578060031936011261069357815180916003549384835260208093018095600384527fc2575a0e9e593c00f959f8c92f12db2869c3395a3b0502d05e2516446f71f85b90845b868282106106765750505050849003601f01601f191684019567ffffffffffffffff871185881017610663575085815282865292518583018190528594938501939290915b82811061064357505050500390f35b83516001600160a01b031685528695509381019392810192600101610634565b634e487b7160e01b835260419052602482fd5b83546001600160a01b0316855290930192600192830192016105ef565b80fd5b50903461015357806003193601126101535760207ff329a84df901800b22b99dc49239118ed5ea5d51d56a0c8e7c33fbf16e6340ad916106d4610d54565b90602435916106e1610dbc565b6001600160a01b031680875260028452818720549095906107079060a01c60ff16610e84565b610729836107248354898b52600288526001868c20015490610ec5565b610e61565b905584865260028352816001828820015551908152a280f35b50503461019d578160031936011261019d57905490516001600160a01b039091168152602090f35b50503461019d57602036600319011261019d5760209160ff9082906001600160a01b03610795610d54565b168152600a855220541690519015158152f35b83346106935780600319360112610693576107c1610dbc565b80546001600160a01b03198116825581906001600160a01b03167f8be0079c531659141344cd1fd0a4f28419497f9722a3daafe3b4186f6b6457e08280a380f35b5090346101535760203660031901126101535761081d610d54565b91610826610dbc565b6001600160a01b0392831680855260026020528285205490939061084f9060a01c60ff16610e84565b838552600260205260019261086a8482882001548454610ec5565b835584865260026020528520805460ff60a01b1916905584835b6108b2575b85857fb8107d0c6b40be480ce3172ee66ba6d64b71f6b1685a851340036e6e2e3e3c528280a280f35b600380548083101561099c5786846108c985610d6f565b905490851b1c16146108fb57505060001981146108e857830183610884565b634e487b7160e01b865260118352602486fd5b929450929060001992838101908111610989579061092c8661091f61094b94610d6f565b905490881b1c1691610d6f565b90919082549060031b9160018060a01b03809116831b921b1916179055565b82549081156109765750019161096083610d6f565b9091825491841b1b191690555538808080610889565b634e487b7160e01b875260319052602486fd5b634e487b7160e01b885260118352602488fd5b5050610889565b503461015357602036600319011261015357359160035483101561069357506109cd602092610d6f565b60018060a01b0391549060031b1c169051908152f35b50503461019d578160031936011261019d576020906006549051908152f35b50503461019d578160031936011261019d576020906005549051908152f35b50503461019d578160031936011261019d5760a090600180831b0360075416906008549060ff6009541690600b549160ff600c54169382519586526020860152151590840152606083015215156080820152f35b50503461019d57602036600319011261019d576060916001600160a01b03918391819084610aa1610d54565b16815260026020522060ff825194610ab886610e2f565b8254908116865260a01c16151593846020820152600260018301549283858401520154938491015281519384526020840152820152f35b5091903461019d578060031936011261019d57610b0a610d54565b9060243590610b17610dbc565b6001600160a01b0383811693908415610c5d57848652600260205260ff8387205460a01c16610c1a576002835191610b4e83610e2f565b8683526020830160018152858401908782526060850192428452898b5284602052878b2095511685549160ff60a01b9051151560a01b16916affffffffffffffffffffff60a81b16171784555160018401555191015560035468010000000000000000811015610c07579186610bf27f6276832b43b1ca1eab9c38b577dc5ba939a807f5ca7b7e5b6f1f09e80e487fad959361092c86600160209801600355610d6f565b610bfd838254610e61565b905551908152a280f35b634e487b7160e01b865260418752602486fd5b825162461bcd60e51b8152602081890152601760248201527f477561726469616e20616c7265616479206578697374730000000000000000006044820152606490fd5b825162461bcd60e51b8152602081890152601860248201527f496e76616c696420677561726469616e206164647265737300000000000000006044820152606490fd5b8334610693578060031936011261069357610cb9610dbc565b600c54610cc860ff8216610f0f565b60ff1916600c557fedd770ee01b7c0ef4f503125eafdc2725536cbf32342dffcaa300d95a7cafce38180a180f35b84908434610153576020366003190112610153576080926001600160a01b039190819083610d22610d54565b1681526002602052209060ff825460026001850154940154948116865260a01c16151560208501528301526060820152f35b600435906001600160a01b0382168203610d6a57565b600080fd5b600354811015610da65760036000527fc2575a0e9e593c00f959f8c92f12db2869c3395a3b0502d05e2516446f71f85b0190600090565b634e487b7160e01b600052603260045260246000fd5b6000546001600160a01b03163303610dd057565b60405163118cdaa760e01b8152336004820152602490fd5b600080546001600160a01b039283166001600160a01b03198216811783559216907f8be0079c531659141344cd1fd0a4f28419497f9722a3daafe3b4186f6b6457e09080a3565b6080810190811067ffffffffffffffff821117610e4b57604052565b634e487b7160e01b600052604160045260246000fd5b91908201809211610e6e57565b634e487b7160e01b600052601160045260246000fd5b15610e8b57565b60405162461bcd60e51b815260206004820152601260248201527111dd585c991a585b881b9bdd08199bdd5b9960721b6044820152606490fd5b91908203918211610e6e57565b15610ed957565b60405162461bcd60e51b815260206004820152600e60248201526d2737ba10309033bab0b93234b0b760911b6044820152606490fd5b15610f1657565b60405162461bcd60e51b815260206004820152601760248201527f4e6f207265636f7665727920696e2070726f67726573730000000000000000006044820152606490fdfea264697066735822122000b0d081aa1f64b9a7ebf05593c1137fad03bece0a6d386d4dd5cb24c5867f7264736f6c63430008140033","opcodes":"PUSH1 0x80 CALLVALUE PUSH2 0xCA JUMPI PUSH1 0x1F PUSH2 0x1077 CODESIZE DUP2 SWAP1 SUB SWAP2 DUP3 ADD PUSH1 0x1F NOT AND DUP4 ADD SWAP2 PUSH1 0x1 PUSH1 0x1 PUSH1 0x40 SHL SUB DUP4 GT DUP5 DUP5 LT OR PUSH2 0xCF JUMPI DUP1 DUP5 SWAP3 PUSH1 0x20 SWAP5 PUSH1 0x40 MSTORE DUP4 CODECOPY DUP2 ADD SUB SLT PUSH2 0xCA JUMPI MLOAD PUSH1 0x1 PUSH1 0x1 PUSH1 0xA0 SHL SUB SWAP1 DUP2 DUP2 AND SWAP1 DUP2 SWAP1 SUB PUSH2 0xCA JUMPI DUP1 ISZERO PUSH2 0xB1 JUMPI PUSH1 0x0 DUP1 SLOAD PUSH1 0x1 PUSH1 0x1 PUSH1 0xA0 SHL SUB NOT DUP2 AND DUP4 OR DUP3 SSTORE PUSH1 0x40 MLOAD SWAP4 AND SWAP1 PUSH32 0x8BE0079C531659141344CD1FD0A4F28419497F9722A3DAAFE3B4186F6B6457E0 SWAP1 DUP1 LOG3 PUSH1 0x1 DUP1 SSTORE PUSH2 0xE10 PUSH1 0x6 SSTORE PUSH1 0x2 PUSH1 0x5 SSTORE PUSH2 0xF91 SWAP1 DUP2 PUSH2 0xE6 DUP3 CODECOPY RETURN JUMPDEST PUSH1 0x40 MLOAD PUSH4 0x1E4FBDF7 PUSH1 0xE0 SHL DUP2 MSTORE PUSH1 0x0 PUSH1 0x4 DUP3 ADD MSTORE PUSH1 0x24 SWAP1 REVERT JUMPDEST PUSH1 0x0 DUP1 REVERT JUMPDEST PUSH4 0x4E487B71 PUSH1 0xE0 SHL PUSH1 0x0 MSTORE PUSH1 0x41 PUSH1 0x4 MSTORE PUSH1 0x24 PUSH1 0x0 REVERT INVALID PUSH1 0x80 PUSH1 0x40 DUP2 DUP2 MSTORE PUSH1 0x4 DUP1 CALLDATASIZE LT ISZERO PUSH2 0x15 JUMPI PUSH1 0x0 DUP1 REVERT JUMPDEST PUSH1 0x0 SWAP3 DUP4 CALLDATALOAD PUSH1 0xE0 SHR SWAP1 DUP2 PUSH4 0x633B14A EQ PUSH2 0xCF6 JUMPI POP DUP1 PUSH4 0xBA234D6 EQ PUSH2 0xCA0 JUMPI DUP1 PUSH4 0x111E5313 EQ PUSH2 0xAEF JUMPI DUP1 PUSH4 0x11448B40 EQ PUSH2 0xA75 JUMPI DUP1 PUSH4 0x124F8D9C EQ PUSH2 0xA21 JUMPI DUP1 PUSH4 0x1415078E EQ PUSH2 0xA02 JUMPI DUP1 PUSH4 0x3758CA7A EQ PUSH2 0x9E3 JUMPI DUP1 PUSH4 0x5EC005FA EQ PUSH2 0x9A3 JUMPI DUP1 PUSH4 0x71404156 EQ PUSH2 0x802 JUMPI DUP1 PUSH4 0x715018A6 EQ PUSH2 0x7A8 JUMPI DUP1 PUSH4 0x74A2BC0A EQ PUSH2 0x76A JUMPI DUP1 PUSH4 0x8DA5CB5B EQ PUSH2 0x742 JUMPI DUP1 PUSH4 0xADB0C9C4 EQ PUSH2 0x696 JUMPI DUP1 PUSH4 0xB9B87DF0 EQ PUSH2 0x5A3 JUMPI DUP1 PUSH4 0xCBC3B3C2 EQ PUSH2 0x36E JUMPI DUP1 PUSH4 0xD5CE9AAD EQ PUSH2 0x1E2 JUMPI DUP1 PUSH4 0xDB16330D EQ PUSH2 0x1BE JUMPI DUP1 PUSH4 0xDFAD4115 EQ PUSH2 0x1A1 JUMPI DUP1 PUSH4 0xE8F0A74F EQ PUSH2 0x157 JUMPI PUSH4 0xF2FDE38B EQ PUSH2 0xFF JUMPI PUSH1 0x0 DUP1 REVERT JUMPDEST CALLVALUE PUSH2 0x153 JUMPI PUSH1 0x20 CALLDATASIZE PUSH1 0x3 NOT ADD SLT PUSH2 0x153 JUMPI PUSH2 0x118 PUSH2 0xD54 JUMP JUMPDEST SWAP2 PUSH2 0x121 PUSH2 0xDBC JUMP JUMPDEST PUSH1 0x1 PUSH1 0x1 PUSH1 0xA0 SHL SUB DUP4 AND ISZERO PUSH2 0x13D JUMPI DUP4 PUSH2 0x13A DUP5 PUSH2 0xDE8 JUMP JUMPDEST DUP1 RETURN JUMPDEST MLOAD PUSH4 0x1E4FBDF7 PUSH1 0xE0 SHL DUP2 MSTORE SWAP1 DUP2 ADD DUP4 SWAP1 MSTORE PUSH1 0x24 SWAP1 REVERT JUMPDEST DUP3 DUP1 REVERT JUMPDEST POP POP CALLVALUE PUSH2 0x19D JUMPI DUP2 PUSH1 0x3 NOT CALLDATASIZE ADD SLT PUSH2 0x19D JUMPI PUSH1 0x80 SWAP1 PUSH1 0x1 DUP1 PUSH1 0xA0 SHL SUB PUSH1 0x7 SLOAD AND SWAP1 PUSH1 0x8 SLOAD SWAP1 PUSH1 0xFF PUSH1 0x9 SLOAD AND PUSH1 0xB SLOAD SWAP3 DUP3 MLOAD SWAP5 DUP6 MSTORE PUSH1 0x20 DUP6 ADD MSTORE ISZERO ISZERO SWAP1 DUP4 ADD MSTORE PUSH1 0x60 DUP3 ADD MSTORE RETURN JUMPDEST POP DUP1 REVERT JUMPDEST POP CALLVALUE PUSH2 0x153 JUMPI DUP3 PUSH1 0x3 NOT CALLDATASIZE ADD SLT PUSH2 0x153 JUMPI PUSH1 0x20 SWAP3 POP SLOAD SWAP1 MLOAD SWAP1 DUP2 MSTORE RETURN JUMPDEST POP POP CALLVALUE PUSH2 0x19D JUMPI DUP2 PUSH1 0x3 NOT CALLDATASIZE ADD SLT PUSH2 0x19D JUMPI PUSH1 0x20 SWAP1 PUSH1 0xFF PUSH1 0xC SLOAD AND SWAP1 MLOAD SWAP1 ISZERO ISZERO DUP2 MSTORE RETURN JUMPDEST POP SWAP1 CALLVALUE PUSH2 0x153 JUMPI PUSH1 0x20 SWAP1 DUP2 PUSH1 0x3 NOT CALLDATASIZE ADD SLT PUSH2 0x36A JUMPI PUSH2 0x1FF PUSH2 0xD54 JUMP JUMPDEST SWAP3 CALLER DUP6 MSTORE PUSH1 0x2 DUP4 MSTORE PUSH2 0x219 PUSH1 0xFF DUP4 DUP8 KECCAK256 SLOAD PUSH1 0xA0 SHR AND PUSH2 0xED2 JUMP JUMPDEST PUSH1 0xC SLOAD SWAP1 PUSH1 0xFF DUP3 AND PUSH2 0x327 JUMPI PUSH1 0x1 PUSH1 0x1 PUSH1 0xA0 SHL SUB SWAP5 DUP6 AND SWAP5 DUP6 ISZERO PUSH2 0x2EF JUMPI DUP7 SLOAD AND DUP6 EQ PUSH2 0x2A1 JUMPI POP SWAP1 PUSH32 0x8A9BDBD6FA6536BD7E02875D089A0604DE2D92780294ABC78536D93FD6C95B7C SWAP3 SWAP2 PUSH1 0x1 PUSH1 0xFF NOT DUP1 SWAP3 AND OR PUSH1 0xC SSTORE DUP5 PUSH12 0xFFFFFFFFFFFFFFFFFFFFFFFF PUSH1 0xA0 SHL PUSH1 0x7 SLOAD AND OR PUSH1 0x7 SSTORE TIMESTAMP PUSH1 0x8 SSTORE PUSH1 0x9 SLOAD AND PUSH1 0x9 SSTORE DUP5 PUSH1 0xB SSTORE MLOAD TIMESTAMP DUP2 MSTORE LOG2 DUP1 RETURN JUMPDEST DUP3 MLOAD PUSH3 0x461BCD PUSH1 0xE5 SHL DUP2 MSTORE SWAP1 DUP2 ADD DUP5 SWAP1 MSTORE PUSH1 0x22 PUSH1 0x24 DUP3 ADD MSTORE PUSH32 0x4E6577207369676E65722063616E6E6F742062652063757272656E74206F776E PUSH1 0x44 DUP3 ADD MSTORE PUSH2 0x32B9 PUSH1 0xF1 SHL PUSH1 0x64 DUP3 ADD MSTORE PUSH1 0x84 SWAP1 REVERT JUMPDEST DUP4 MLOAD PUSH3 0x461BCD PUSH1 0xE5 SHL DUP2 MSTORE DUP1 DUP4 ADD DUP7 SWAP1 MSTORE PUSH1 0x12 PUSH1 0x24 DUP3 ADD MSTORE PUSH18 0x24B73B30B634B2103732BB9039B4B3B732B9 PUSH1 0x71 SHL PUSH1 0x44 DUP3 ADD MSTORE PUSH1 0x64 SWAP1 REVERT JUMPDEST DUP3 MLOAD PUSH3 0x461BCD PUSH1 0xE5 SHL DUP2 MSTORE SWAP1 DUP2 ADD DUP5 SWAP1 MSTORE PUSH1 0x1C PUSH1 0x24 DUP3 ADD MSTORE PUSH32 0x5265636F7665727920616C726561647920696E2070726F677265737300000000 PUSH1 0x44 DUP3 ADD MSTORE PUSH1 0x64 SWAP1 REVERT JUMPDEST DUP4 DUP1 REVERT JUMPDEST POP SWAP1 CALLVALUE PUSH2 0x153 JUMPI PUSH1 0x20 SWAP1 DUP2 PUSH1 0x3 NOT CALLDATASIZE ADD SLT PUSH2 0x36A JUMPI PUSH2 0x38B PUSH2 0xD54 JUMP JUMPDEST CALLER DUP6 MSTORE PUSH1 0x2 DUP4 MSTORE PUSH2 0x3A4 PUSH1 0xFF DUP4 DUP8 KECCAK256 SLOAD PUSH1 0xA0 SHR AND PUSH2 0xED2 JUMP JUMPDEST PUSH2 0x3B2 PUSH1 0xFF PUSH1 0xC SLOAD AND PUSH2 0xF0F JUMP JUMPDEST PUSH1 0x7 SLOAD PUSH1 0x1 PUSH1 0x1 PUSH1 0xA0 SHL SUB SWAP4 SWAP2 DUP5 AND SWAP2 SWAP1 DUP5 AND DUP3 SWAP1 SUB PUSH2 0x56B JUMPI CALLER DUP7 MSTORE PUSH1 0xA DUP2 MSTORE PUSH1 0xFF DUP4 DUP8 KECCAK256 SLOAD AND PUSH2 0x536 JUMPI PUSH2 0x3ED PUSH1 0x8 SLOAD PUSH1 0x6 SLOAD SWAP1 PUSH2 0xE61 JUMP JUMPDEST TIMESTAMP LT PUSH2 0x4FB JUMPI CALLER DUP7 MSTORE PUSH1 0xA DUP2 MSTORE DUP3 DUP7 KECCAK256 SWAP3 PUSH1 0xFF NOT SWAP4 PUSH1 0x1 DUP6 DUP3 SLOAD AND OR SWAP1 SSTORE PUSH1 0x2 DUP3 MSTORE PUSH2 0x421 PUSH1 0x1 DUP3 DUP10 KECCAK256 ADD SLOAD PUSH1 0xB SLOAD PUSH2 0xE61 JUMP JUMPDEST SWAP1 DUP2 PUSH1 0xB SSTORE MLOAD SWAP3 CALLER PUSH32 0x10C6775F0265D0CB459912547A8AAFFB6C41C309BE8482A12A66ED15774F7EA5 DUP10 DUP1 LOG3 PUSH1 0x5 SLOAD GT ISZERO PUSH2 0x45A JUMPI DUP6 DUP1 RETURN JUMPDEST PUSH1 0x9 SLOAD SWAP5 PUSH1 0xFF DUP7 AND PUSH2 0x4BC JUMPI POP POP POP PUSH1 0x1 DUP2 DUP4 DUP7 SLOAD AND SWAP5 AND OR PUSH1 0x9 SSTORE PUSH1 0xC SLOAD AND PUSH1 0xC SSTORE PUSH2 0x48A DUP2 PUSH1 0x7 SLOAD AND PUSH2 0xDE8 JUMP JUMPDEST PUSH1 0x7 SLOAD AND SWAP1 PUSH32 0x60F9F98BE64687700419CFA6FDD7877BC88C6DAEB10BC664A2BE9FDD6B0C7921 DUP4 DUP1 LOG3 CODESIZE DUP1 DUP1 DUP1 DUP1 DUP6 DUP1 RETURN JUMPDEST PUSH3 0x461BCD PUSH1 0xE5 SHL DUP4 MSTORE DUP3 ADD MSTORE PUSH1 0x19 PUSH1 0x24 DUP3 ADD MSTORE PUSH32 0x5265636F7665727920616C726561647920657865637574656400000000000000 PUSH1 0x44 DUP3 ADD MSTORE PUSH1 0x64 SWAP2 POP REVERT JUMPDEST DUP5 PUSH1 0x64 SWAP2 DUP5 MLOAD SWAP2 PUSH3 0x461BCD PUSH1 0xE5 SHL DUP4 MSTORE DUP3 ADD MSTORE PUSH1 0x16 PUSH1 0x24 DUP3 ADD MSTORE PUSH22 0x149958DBDD995C9E4819195B185E481B9BDD081B595D PUSH1 0x52 SHL PUSH1 0x44 DUP3 ADD MSTORE REVERT JUMPDEST DUP5 PUSH1 0x64 SWAP2 DUP5 MLOAD SWAP2 PUSH3 0x461BCD PUSH1 0xE5 SHL DUP4 MSTORE DUP3 ADD MSTORE PUSH1 0x10 PUSH1 0x24 DUP3 ADD MSTORE PUSH16 0x105B1C9958591E48185C1C1C9BDD9959 PUSH1 0x82 SHL PUSH1 0x44 DUP3 ADD MSTORE REVERT JUMPDEST DUP5 PUSH1 0x64 SWAP2 DUP5 MLOAD SWAP2 PUSH3 0x461BCD PUSH1 0xE5 SHL DUP4 MSTORE DUP3 ADD MSTORE PUSH1 0x13 PUSH1 0x24 DUP3 ADD MSTORE PUSH19 0x9CCAEE40E6D2CEDCCAE440DAD2E6DAC2E8C6D PUSH1 0x6B SHL PUSH1 0x44 DUP3 ADD MSTORE REVERT JUMPDEST POP SWAP2 CALLVALUE PUSH2 0x693 JUMPI DUP1 PUSH1 0x3 NOT CALLDATASIZE ADD SLT PUSH2 0x693 JUMPI DUP2 MLOAD DUP1 SWAP2 PUSH1 0x3 SLOAD SWAP4 DUP5 DUP4 MSTORE PUSH1 0x20 DUP1 SWAP4 ADD DUP1 SWAP6 PUSH1 0x3 DUP5 MSTORE PUSH32 0xC2575A0E9E593C00F959F8C92F12DB2869C3395A3B0502D05E2516446F71F85B SWAP1 DUP5 JUMPDEST DUP7 DUP3 DUP3 LT PUSH2 0x676 JUMPI POP POP POP POP DUP5 SWAP1 SUB PUSH1 0x1F ADD PUSH1 0x1F NOT AND DUP5 ADD SWAP6 PUSH8 0xFFFFFFFFFFFFFFFF DUP8 GT DUP6 DUP9 LT OR PUSH2 0x663 JUMPI POP DUP6 DUP2 MSTORE DUP3 DUP7 MSTORE SWAP3 MLOAD DUP6 DUP4 ADD DUP2 SWAP1 MSTORE DUP6 SWAP5 SWAP4 DUP6 ADD SWAP4 SWAP3 SWAP1 SWAP2 JUMPDEST DUP3 DUP2 LT PUSH2 0x643 JUMPI POP POP POP POP SUB SWAP1 RETURN JUMPDEST DUP4 MLOAD PUSH1 0x1 PUSH1 0x1 PUSH1 0xA0 SHL SUB AND DUP6 MSTORE DUP7 SWAP6 POP SWAP4 DUP2 ADD SWAP4 SWAP3 DUP2 ADD SWAP3 PUSH1 0x1 ADD PUSH2 0x634 JUMP JUMPDEST PUSH4 0x4E487B71 PUSH1 0xE0 SHL DUP4 MSTORE PUSH1 0x41 SWAP1 MSTORE PUSH1 0x24 DUP3 REVERT JUMPDEST DUP4 SLOAD PUSH1 0x1 PUSH1 0x1 PUSH1 0xA0 SHL SUB AND DUP6 MSTORE SWAP1 SWAP4 ADD SWAP3 PUSH1 0x1 SWAP3 DUP4 ADD SWAP3 ADD PUSH2 0x5EF JUMP JUMPDEST DUP1 REVERT JUMPDEST POP SWAP1 CALLVALUE PUSH2 0x153 JUMPI DUP1 PUSH1 0x3 NOT CALLDATASIZE ADD SLT PUSH2 0x153 JUMPI PUSH1 0x20 PUSH32 0xF329A84DF901800B22B99DC49239118ED5EA5D51D56A0C8E7C33FBF16E6340AD SWAP2 PUSH2 0x6D4 PUSH2 0xD54 JUMP JUMPDEST SWAP1 PUSH1 0x24 CALLDATALOAD SWAP2 PUSH2 0x6E1 PUSH2 0xDBC JUMP JUMPDEST PUSH1 0x1 PUSH1 0x1 PUSH1 0xA0 SHL SUB AND DUP1 DUP8 MSTORE PUSH1 0x2 DUP5 MSTORE DUP2 DUP8 KECCAK256 SLOAD SWAP1 SWAP6 SWAP1 PUSH2 0x707 SWAP1 PUSH1 0xA0 SHR PUSH1 0xFF AND PUSH2 0xE84 JUMP JUMPDEST PUSH2 0x729 DUP4 PUSH2 0x724 DUP4 SLOAD DUP10 DUP12 MSTORE PUSH1 0x2 DUP9 MSTORE PUSH1 0x1 DUP7 DUP13 KECCAK256 ADD SLOAD SWAP1 PUSH2 0xEC5 JUMP JUMPDEST PUSH2 0xE61 JUMP JUMPDEST SWAP1 SSTORE DUP5 DUP7 MSTORE PUSH1 0x2 DUP4 MSTORE DUP2 PUSH1 0x1 DUP3 DUP9 KECCAK256 ADD SSTORE MLOAD SWAP1 DUP2 MSTORE LOG2 DUP1 RETURN JUMPDEST POP POP CALLVALUE PUSH2 0x19D JUMPI DUP2 PUSH1 0x3 NOT CALLDATASIZE ADD SLT PUSH2 0x19D JUMPI SWAP1 SLOAD SWAP1 MLOAD PUSH1 0x1 PUSH1 0x1 PUSH1 0xA0 SHL SUB SWAP1 SWAP2 AND DUP2 MSTORE PUSH1 0x20 SWAP1 RETURN JUMPDEST POP POP CALLVALUE PUSH2 0x19D JUMPI PUSH1 0x20 CALLDATASIZE PUSH1 0x3 NOT ADD SLT PUSH2 0x19D JUMPI PUSH1 0x20 SWAP2 PUSH1 0xFF SWAP1 DUP3 SWAP1 PUSH1 0x1 PUSH1 0x1 PUSH1 0xA0 SHL SUB PUSH2 0x795 PUSH2 0xD54 JUMP JUMPDEST AND DUP2 MSTORE PUSH1 0xA DUP6 MSTORE KECCAK256 SLOAD AND SWAP1 MLOAD SWAP1 ISZERO ISZERO DUP2 MSTORE RETURN JUMPDEST DUP4 CALLVALUE PUSH2 0x693 JUMPI DUP1 PUSH1 0x3 NOT CALLDATASIZE ADD SLT PUSH2 0x693 JUMPI PUSH2 0x7C1 PUSH2 0xDBC JUMP JUMPDEST DUP1 SLOAD PUSH1 0x1 PUSH1 0x1 PUSH1 0xA0 SHL SUB NOT DUP2 AND DUP3 SSTORE DUP2 SWAP1 PUSH1 0x1 PUSH1 0x1 PUSH1 0xA0 SHL SUB AND PUSH32 0x8BE0079C531659141344CD1FD0A4F28419497F9722A3DAAFE3B4186F6B6457E0 DUP3 DUP1 LOG3 DUP1 RETURN JUMPDEST POP SWAP1 CALLVALUE PUSH2 0x153 JUMPI PUSH1 0x20 CALLDATASIZE PUSH1 0x3 NOT ADD SLT PUSH2 0x153 JUMPI PUSH2 0x81D PUSH2 0xD54 JUMP JUMPDEST SWAP2 PUSH2 0x826 PUSH2 0xDBC JUMP JUMPDEST PUSH1 0x1 PUSH1 0x1 PUSH1 0xA0 SHL SUB SWAP3 DUP4 AND DUP1 DUP6 MSTORE PUSH1 0x2 PUSH1 0x20 MSTORE DUP3 DUP6 KECCAK256 SLOAD SWAP1 SWAP4 SWAP1 PUSH2 0x84F SWAP1 PUSH1 0xA0 SHR PUSH1 0xFF AND PUSH2 0xE84 JUMP JUMPDEST DUP4 DUP6 MSTORE PUSH1 0x2 PUSH1 0x20 MSTORE PUSH1 0x1 SWAP3 PUSH2 0x86A DUP5 DUP3 DUP9 KECCAK256 ADD SLOAD DUP5 SLOAD PUSH2 0xEC5 JUMP JUMPDEST DUP4 SSTORE DUP5 DUP7 MSTORE PUSH1 0x2 PUSH1 0x20 MSTORE DUP6 KECCAK256 DUP1 SLOAD PUSH1 0xFF PUSH1 0xA0 SHL NOT AND SWAP1 SSTORE DUP5 DUP4 JUMPDEST PUSH2 0x8B2 JUMPI JUMPDEST DUP6 DUP6 PUSH32 0xB8107D0C6B40BE480CE3172EE66BA6D64B71F6B1685A851340036E6E2E3E3C52 DUP3 DUP1 LOG2 DUP1 RETURN JUMPDEST PUSH1 0x3 DUP1 SLOAD DUP1 DUP4 LT ISZERO PUSH2 0x99C JUMPI DUP7 DUP5 PUSH2 0x8C9 DUP6 PUSH2 0xD6F JUMP JUMPDEST SWAP1 SLOAD SWAP1 DUP6 SHL SHR AND EQ PUSH2 0x8FB JUMPI POP POP PUSH1 0x0 NOT DUP2 EQ PUSH2 0x8E8 JUMPI DUP4 ADD DUP4 PUSH2 0x884 JUMP JUMPDEST PUSH4 0x4E487B71 PUSH1 0xE0 SHL DUP7 MSTORE PUSH1 0x11 DUP4 MSTORE PUSH1 0x24 DUP7 REVERT JUMPDEST SWAP3 SWAP5 POP SWAP3 SWAP1 PUSH1 0x0 NOT SWAP3 DUP4 DUP2 ADD SWAP1 DUP2 GT PUSH2 0x989 JUMPI SWAP1 PUSH2 0x92C DUP7 PUSH2 0x91F PUSH2 0x94B SWAP5 PUSH2 0xD6F JUMP JUMPDEST SWAP1 SLOAD SWAP1 DUP9 SHL SHR AND SWAP2 PUSH2 0xD6F JUMP JUMPDEST SWAP1 SWAP2 SWAP1 DUP3 SLOAD SWAP1 PUSH1 0x3 SHL SWAP2 PUSH1 0x1 DUP1 PUSH1 0xA0 SHL SUB DUP1 SWAP2 AND DUP4 SHL SWAP3 SHL NOT AND OR SWAP1 SSTORE JUMP JUMPDEST DUP3 SLOAD SWAP1 DUP2 ISZERO PUSH2 0x976 JUMPI POP ADD SWAP2 PUSH2 0x960 DUP4 PUSH2 0xD6F JUMP JUMPDEST SWAP1 SWAP2 DUP3 SLOAD SWAP2 DUP5 SHL SHL NOT AND SWAP1 SSTORE SSTORE CODESIZE DUP1 DUP1 DUP1 PUSH2 0x889 JUMP JUMPDEST PUSH4 0x4E487B71 PUSH1 0xE0 SHL DUP8 MSTORE PUSH1 0x31 SWAP1 MSTORE PUSH1 0x24 DUP7 REVERT JUMPDEST PUSH4 0x4E487B71 PUSH1 0xE0 SHL DUP9 MSTORE PUSH1 0x11 DUP4 MSTORE PUSH1 0x24 DUP9 REVERT JUMPDEST POP POP PUSH2 0x889 JUMP JUMPDEST POP CALLVALUE PUSH2 0x153 JUMPI PUSH1 0x20 CALLDATASIZE PUSH1 0x3 NOT ADD SLT PUSH2 0x153 JUMPI CALLDATALOAD SWAP2 PUSH1 0x3 SLOAD DUP4 LT ISZERO PUSH2 0x693 JUMPI POP PUSH2 0x9CD PUSH1 0x20 SWAP3 PUSH2 0xD6F JUMP JUMPDEST PUSH1 0x1 DUP1 PUSH1 0xA0 SHL SUB SWAP2 SLOAD SWAP1 PUSH1 0x3 SHL SHR AND SWAP1 MLOAD SWAP1 DUP2 MSTORE RETURN JUMPDEST POP POP CALLVALUE PUSH2 0x19D JUMPI DUP2 PUSH1 0x3 NOT CALLDATASIZE ADD SLT PUSH2 0x19D JUMPI PUSH1 0x20 SWAP1 PUSH1 0x6 SLOAD SWAP1 MLOAD SWAP1 DUP2 MSTORE RETURN JUMPDEST POP POP CALLVALUE PUSH2 0x19D JUMPI DUP2 PUSH1 0x3 NOT CALLDATASIZE ADD SLT PUSH2 0x19D JUMPI PUSH1 0x20 SWAP1 PUSH1 0x5 SLOAD SWAP1 MLOAD SWAP1 DUP2 MSTORE RETURN JUMPDEST POP POP CALLVALUE PUSH2 0x19D JUMPI DUP2 PUSH1 0x3 NOT CALLDATASIZE ADD SLT PUSH2 0x19D JUMPI PUSH1 0xA0 SWAP1 PUSH1 0x1 DUP1 DUP4 SHL SUB PUSH1 0x7 SLOAD AND SWAP1 PUSH1 0x8 SLOAD SWAP1 PUSH1 0xFF PUSH1 0x9 SLOAD AND SWAP1 PUSH1 0xB SLOAD SWAP2 PUSH1 0xFF PUSH1 0xC SLOAD AND SWAP4 DUP3 MLOAD SWAP6 DUP7 MSTORE PUSH1 0x20 DUP7 ADD MSTORE ISZERO ISZERO SWAP1 DUP5 ADD MSTORE PUSH1 0x60 DUP4 ADD MSTORE ISZERO ISZERO PUSH1 0x80 DUP3 ADD MSTORE RETURN JUMPDEST POP POP CALLVALUE PUSH2 0x19D JUMPI PUSH1 0x20 CALLDATASIZE PUSH1 0x3 NOT ADD SLT PUSH2 0x19D JUMPI PUSH1 0x60 SWAP2 PUSH1 0x1 PUSH1 0x1 PUSH1 0xA0 SHL SUB SWAP2 DUP4 SWAP2 DUP2 SWAP1 DUP5 PUSH2 0xAA1 PUSH2 0xD54 JUMP JUMPDEST AND DUP2 MSTORE PUSH1 0x2 PUSH1 0x20 MSTORE KECCAK256 PUSH1 0xFF DUP3 MLOAD SWAP5 PUSH2 0xAB8 DUP7 PUSH2 0xE2F JUMP JUMPDEST DUP3 SLOAD SWAP1 DUP2 AND DUP7 MSTORE PUSH1 0xA0 SHR AND ISZERO ISZERO SWAP4 DUP5 PUSH1 0x20 DUP3 ADD MSTORE PUSH1 0x2 PUSH1 0x1 DUP4 ADD SLOAD SWAP3 DUP4 DUP6 DUP5 ADD MSTORE ADD SLOAD SWAP4 DUP5 SWAP2 ADD MSTORE DUP2 MLOAD SWAP4 DUP5 MSTORE PUSH1 0x20 DUP5 ADD MSTORE DUP3 ADD MSTORE RETURN JUMPDEST POP SWAP2 SWAP1 CALLVALUE PUSH2 0x19D JUMPI DUP1 PUSH1 0x3 NOT CALLDATASIZE ADD SLT PUSH2 0x19D JUMPI PUSH2 0xB0A PUSH2 0xD54 JUMP JUMPDEST SWAP1 PUSH1 0x24 CALLDATALOAD SWAP1 PUSH2 0xB17 PUSH2 0xDBC JUMP JUMPDEST PUSH1 0x1 PUSH1 0x1 PUSH1 0xA0 SHL SUB DUP4 DUP2 AND SWAP4 SWAP1 DUP5 ISZERO PUSH2 0xC5D JUMPI DUP5 DUP7 MSTORE PUSH1 0x2 PUSH1 0x20 MSTORE PUSH1 0xFF DUP4 DUP8 KECCAK256 SLOAD PUSH1 0xA0 SHR AND PUSH2 0xC1A JUMPI PUSH1 0x2 DUP4 MLOAD SWAP2 PUSH2 0xB4E DUP4 PUSH2 0xE2F JUMP JUMPDEST DUP7 DUP4 MSTORE PUSH1 0x20 DUP4 ADD PUSH1 0x1 DUP2 MSTORE DUP6 DUP5 ADD SWAP1 DUP8 DUP3 MSTORE PUSH1 0x60 DUP6 ADD SWAP3 TIMESTAMP DUP5 MSTORE DUP10 DUP12 MSTORE DUP5 PUSH1 0x20 MSTORE DUP8 DUP12 KECCAK256 SWAP6 MLOAD AND DUP6 SLOAD SWAP2 PUSH1 0xFF PUSH1 0xA0 SHL SWAP1 MLOAD ISZERO ISZERO PUSH1 0xA0 SHL AND SWAP2 PUSH11 0xFFFFFFFFFFFFFFFFFFFFFF PUSH1 0xA8 SHL AND OR OR DUP5 SSTORE MLOAD PUSH1 0x1 DUP5 ADD SSTORE MLOAD SWAP2 ADD SSTORE PUSH1 0x3 SLOAD PUSH9 0x10000000000000000 DUP2 LT ISZERO PUSH2 0xC07 JUMPI SWAP2 DUP7 PUSH2 0xBF2 PUSH32 0x6276832B43B1CA1EAB9C38B577DC5BA939A807F5CA7B7E5B6F1F09E80E487FAD SWAP6 SWAP4 PUSH2 0x92C DUP7 PUSH1 0x1 PUSH1 0x20 SWAP9 ADD PUSH1 0x3 SSTORE PUSH2 0xD6F JUMP JUMPDEST PUSH2 0xBFD DUP4 DUP3 SLOAD PUSH2 0xE61 JUMP JUMPDEST SWAP1 SSTORE MLOAD SWAP1 DUP2 MSTORE LOG2 DUP1 RETURN JUMPDEST PUSH4 0x4E487B71 PUSH1 0xE0 SHL DUP7 MSTORE PUSH1 0x41 DUP8 MSTORE PUSH1 0x24 DUP7 REVERT JUMPDEST DUP3 MLOAD PUSH3 0x461BCD PUSH1 0xE5 SHL DUP2 MSTORE PUSH1 0x20 DUP2 DUP10 ADD MSTORE PUSH1 0x17 PUSH1 0x24 DUP3 ADD MSTORE PUSH32 0x477561726469616E20616C726561647920657869737473000000000000000000 PUSH1 0x44 DUP3 ADD MSTORE PUSH1 0x64 SWAP1 REVERT JUMPDEST DUP3 MLOAD PUSH3 0x461BCD PUSH1 0xE5 SHL DUP2 MSTORE PUSH1 0x20 DUP2 DUP10 ADD MSTORE PUSH1 0x18 PUSH1 0x24 DUP3 ADD MSTORE PUSH32 0x496E76616C696420677561726469616E20616464726573730000000000000000 PUSH1 0x44 DUP3 ADD MSTORE PUSH1 0x64 SWAP1 REVERT JUMPDEST DUP4 CALLVALUE PUSH2 0x693 JUMPI DUP1 PUSH1 0x3 NOT CALLDATASIZE ADD SLT PUSH2 0x693 JUMPI PUSH2 0xCB9 PUSH2 0xDBC JUMP JUMPDEST PUSH1 0xC SLOAD PUSH2 0xCC8 PUSH1 0xFF DUP3 AND PUSH2 0xF0F JUMP JUMPDEST PUSH1 0xFF NOT AND PUSH1 0xC SSTORE PUSH32 0xEDD770EE01B7C0EF4F503125EAFDC2725536CBF32342DFFCAA300D95A7CAFCE3 DUP2 DUP1 LOG1 DUP1 RETURN JUMPDEST DUP5 SWAP1 DUP5 CALLVALUE PUSH2 0x153 JUMPI PUSH1 0x20 CALLDATASIZE PUSH1 0x3 NOT ADD SLT PUSH2 0x153 JUMPI PUSH1 0x80 SWAP3 PUSH1 0x1 PUSH1 0x1 PUSH1 0xA0 SHL SUB SWAP2 SWAP1 DUP2 SWAP1 DUP4 PUSH2 0xD22 PUSH2 0xD54 JUMP JUMPDEST AND DUP2 MSTORE PUSH1 0x2 PUSH1 0x20 MSTORE KECCAK256 SWAP1 PUSH1 0xFF DUP3 SLOAD PUSH1 0x2 PUSH1 0x1 DUP6 ADD SLOAD SWAP5 ADD SLOAD SWAP5 DUP2 AND DUP7 MSTORE PUSH1 0xA0 SHR AND ISZERO ISZERO PUSH1 0x20 DUP6 ADD MSTORE DUP4 ADD MSTORE PUSH1 0x60 DUP3 ADD MSTORE RETURN JUMPDEST PUSH1 0x4 CALLDATALOAD SWAP1 PUSH1 0x1 PUSH1 0x1 PUSH1 0xA0 SHL SUB DUP3 AND DUP3 SUB PUSH2 0xD6A JUMPI JUMP JUMPDEST PUSH1 0x0 DUP1 REVERT JUMPDEST PUSH1 0x3 SLOAD DUP2 LT ISZERO PUSH2 0xDA6 JUMPI PUSH1 0x3 PUSH1 0x0 MSTORE PUSH32 0xC2575A0E9E593C00F959F8C92F12DB2869C3395A3B0502D05E2516446F71F85B ADD SWAP1 PUSH1 0x0 SWAP1 JUMP JUMPDEST PUSH4 0x4E487B71 PUSH1 0xE0 SHL PUSH1 0x0 MSTORE PUSH1 0x32 PUSH1 0x4 MSTORE PUSH1 0x24 PUSH1 0x0 REVERT JUMPDEST PUSH1 0x0 SLOAD PUSH1 0x1 PUSH1 0x1 PUSH1 0xA0 SHL SUB AND CALLER SUB PUSH2 0xDD0 JUMPI JUMP JUMPDEST PUSH1 0x40 MLOAD PUSH4 0x118CDAA7 PUSH1 0xE0 SHL DUP2 MSTORE CALLER PUSH1 0x4 DUP3 ADD MSTORE PUSH1 0x24 SWAP1 REVERT JUMPDEST PUSH1 0x0 DUP1 SLOAD PUSH1 0x1 PUSH1 0x1 PUSH1 0xA0 SHL SUB SWAP3 DUP4 AND PUSH1 0x1 PUSH1 0x1 PUSH1 0xA0 SHL SUB NOT DUP3 AND DUP2 OR DUP4 SSTORE SWAP3 AND SWAP1 PUSH32 0x8BE0079C531659141344CD1FD0A4F28419497F9722A3DAAFE3B4186F6B6457E0 SWAP1 DUP1 LOG3 JUMP JUMPDEST PUSH1 0x80 DUP2 ADD SWAP1 DUP2 LT PUSH8 0xFFFFFFFFFFFFFFFF DUP3 GT OR PUSH2 0xE4B JUMPI PUSH1 0x40 MSTORE JUMP JUMPDEST PUSH4 0x4E487B71 PUSH1 0xE0 SHL PUSH1 0x0 MSTORE PUSH1 0x41 PUSH1 0x4 MSTORE PUSH1 0x24 PUSH1 0x0 REVERT JUMPDEST SWAP2 SWAP1 DUP3 ADD DUP1 SWAP3 GT PUSH2 0xE6E JUMPI JUMP JUMPDEST PUSH4 0x4E487B71 PUSH1 0xE0 SHL PUSH1 0x0 MSTORE PUSH1 0x11 PUSH1 0x4 MSTORE PUSH1 0x24 PUSH1 0x0 REVERT JUMPDEST ISZERO PUSH2 0xE8B JUMPI JUMP JUMPDEST PUSH1 0x40 MLOAD PUSH3 0x461BCD PUSH1 0xE5 SHL DUP2 MSTORE PUSH1 0x20 PUSH1 0x4 DUP3 ADD MSTORE PUSH1 0x12 PUSH1 0x24 DUP3 ADD MSTORE PUSH18 0x11DD585C991A585B881B9BDD08199BDD5B99 PUSH1 0x72 SHL PUSH1 0x44 DUP3 ADD MSTORE PUSH1 0x64 SWAP1 REVERT JUMPDEST SWAP2 SWAP1 DUP3 SUB SWAP2 DUP3 GT PUSH2 0xE6E JUMPI JUMP JUMPDEST ISZERO PUSH2 0xED9 JUMPI JUMP JUMPDEST PUSH1 0x40 MLOAD PUSH3 0x461BCD PUSH1 0xE5 SHL DUP2 MSTORE PUSH1 0x20 PUSH1 0x4 DUP3 ADD MSTORE PUSH1 0xE PUSH1 0x24 DUP3 ADD MSTORE PUSH14 0x2737BA10309033BAB0B93234B0B7 PUSH1 0x91 SHL PUSH1 0x44 DUP3 ADD MSTORE PUSH1 0x64 SWAP1 REVERT JUMPDEST ISZERO PUSH2 0xF16 JUMPI JUMP JUMPDEST PUSH1 0x40 MLOAD PUSH3 0x461BCD PUSH1 0xE5 SHL DUP2 MSTORE PUSH1 0x20 PUSH1 0x4 DUP3 ADD MSTORE PUSH1 0x17 PUSH1 0x24 DUP3 ADD MSTORE PUSH32 0x4E6F207265636F7665727920696E2070726F6772657373000000000000000000 PUSH1 0x44 DUP3 ADD MSTORE PUSH1 0x64 SWAP1 REVERT INVALID LOG2 PUSH5 0x6970667358 0x22 SLT KECCAK256 STOP 0xB0 0xD0 DUP2 0xAA 0x1F PUSH5 0xB9A7EBF055 SWAP4 0xC1 SGT PUSH32 0xAD03BECE0A6D386D4DD5CB24C5867F7264736F6C634300081400330000000000 "},"methodIdentifiers":{"addGuardian(address,uint256)":"111e5313","approveRecovery(address)":"cbc3b3c2","cancelRecovery()":"0ba234d6","currentRecovery()":"e8f0a74f","getAllGuardians()":"b9b87df0","getGuardianInfo(address)":"11448b40","getRecoveryStatus()":"124f8d9c","guardianList(uint256)":"5ec005fa","guardians(address)":"0633b14a","hasGuardianApproved(address)":"74a2bc0a","initiateRecovery(address)":"d5ce9aad","owner()":"8da5cb5b","recoveryDelay()":"3758ca7a","recoveryInProgress()":"db16330d","removeGuardian(address)":"71404156","renounceOwnership()":"715018a6","requiredWeight()":"1415078e","totalGuardianWeight()":"dfad4115","transferOwnership(address)":"f2fde38b","updateGuardianWeight(address,uint256)":"adb0c9c4"}}}}}