{"contracts/ApprovalRevokeHelper.sol":{"ApprovalRevokeHelper":{"abi":[{"inputs":[],"stateMutability":"nonpayable","type":"constructor"},{"inputs":[{"internalType":"address","name":"owner","type":"address"}],"name":"OwnableInvalidOwner","type":"error"},{"inputs":[{"internalType":"address","name":"account","type":"address"}],"name":"OwnableUnauthorizedAccount","type":"error"},{"inputs":[],"name":"ReentrancyGuardReentrantCall","type":"error"},{"anonymous":false,"inputs":[{"indexed":true,"internalType":"address","name":"token","type":"address"},{"indexed":true,"internalType":"address","name":"spender","type":"address"},{"indexed":false,"internalType":"uint256","name":"amount","type":"uint256"}],"name":"ApprovalRevoked","type":"event"},{"anonymous":false,"inputs":[{"indexed":true,"internalType":"address","name":"user","type":"address"},{"indexed":false,"internalType":"uint256","name":"approvalCount","type":"uint256"}],"name":"BatchRevokeInitiated","type":"event"},{"anonymous":false,"inputs":[{"indexed":true,"internalType":"address","name":"token","type":"address"},{"indexed":true,"internalType":"address","name":"spender","type":"address"}],"name":"EmergencyRevoke","type":"event"},{"anonymous":false,"inputs":[{"indexed":true,"internalType":"address","name":"previousOwner","type":"address"},{"indexed":true,"internalType":"address","name":"newOwner","type":"address"}],"name":"OwnershipTransferred","type":"event"},{"inputs":[{"internalType":"address[]","name":"_tokens","type":"address[]"},{"internalType":"address[]","name":"_spenders","type":"address[]"}],"name":"batchRevokeApprovals","outputs":[],"stateMutability":"nonpayable","type":"function"},{"inputs":[{"internalType":"address","name":"_user","type":"address"},{"internalType":"address","name":"_token","type":"address"},{"internalType":"address","name":"_spender","type":"address"}],"name":"emergencyRevoke","outputs":[],"stateMutability":"nonpayable","type":"function"},{"inputs":[{"internalType":"address","name":"_user","type":"address"},{"internalType":"address[]","name":"_tokens","type":"address[]"},{"internalType":"address[]","name":"_spenders","type":"address[]"}],"name":"getActiveApprovalsSummary","outputs":[{"internalType":"uint256","name":"totalActive","type":"uint256"},{"internalType":"uint256","name":"totalValue","type":"uint256"},{"internalType":"address[]","name":"activeTokens","type":"address[]"},{"internalType":"address[]","name":"activeSpenders","type":"address[]"}],"stateMutability":"view","type":"function"},{"inputs":[{"internalType":"address","name":"_user","type":"address"}],"name":"getApprovalCount","outputs":[{"internalType":"uint256","name":"","type":"uint256"}],"stateMutability":"view","type":"function"},{"inputs":[{"internalType":"address","name":"_user","type":"address"},{"internalType":"address","name":"_token","type":"address"},{"internalType":"address","name":"_spender","type":"address"}],"name":"getCurrentAllowance","outputs":[{"internalType":"uint256","name":"","type":"uint256"}],"stateMutability":"view","type":"function"},{"inputs":[{"internalType":"address","name":"_user","type":"address"}],"name":"getUserApprovals","outputs":[{"components":[{"internalType":"address","name":"token","type":"address"},{"internalType":"address","name":"spender","type":"address"},{"internalType":"uint256","name":"amount","type":"uint256"},{"internalType":"bool","name":"isRevoked","type":"bool"}],"internalType":"struct ApprovalRevokeHelper.ApprovalInfo[]","name":"","type":"tuple[]"}],"stateMutability":"view","type":"function"},{"inputs":[{"internalType":"address","name":"_user","type":"address"},{"internalType":"address[]","name":"_tokens","type":"address[]"},{"internalType":"address[]","name":"_spenders","type":"address[]"}],"name":"hasActiveApprovals","outputs":[{"internalType":"bool","name":"","type":"bool"}],"stateMutability":"view","type":"function"},{"inputs":[{"internalType":"address","name":"_user","type":"address"},{"internalType":"address","name":"_token","type":"address"},{"internalType":"address","name":"_spender","type":"address"}],"name":"isApprovalRevoked","outputs":[{"internalType":"bool","name":"","type":"bool"}],"stateMutability":"view","type":"function"},{"inputs":[{"internalType":"address","name":"","type":"address"},{"internalType":"address","name":"","type":"address"},{"internalType":"address","name":"","type":"address"}],"name":"isRevoked","outputs":[{"internalType":"bool","name":"","type":"bool"}],"stateMutability":"view","type":"function"},{"inputs":[],"name":"owner","outputs":[{"internalType":"address","name":"","type":"address"}],"stateMutability":"view","type":"function"},{"inputs":[],"name":"renounceOwnership","outputs":[],"stateMutability":"nonpayable","type":"function"},{"inputs":[{"internalType":"address","name":"_token","type":"address"},{"internalType":"address","name":"_spender","type":"address"}],"name":"revokeApproval","outputs":[],"stateMutability":"nonpayable","type":"function"},{"inputs":[{"internalType":"address","name":"newOwner","type":"address"}],"name":"transferOwnership","outputs":[],"stateMutability":"nonpayable","type":"function"},{"inputs":[{"internalType":"address","name":"","type":"address"},{"internalType":"uint256","name":"","type":"uint256"}],"name":"userApprovals","outputs":[{"internalType":"address","name":"token","type":"address"},{"internalType":"address","name":"spender","type":"address"},{"internalType":"uint256","name":"amount","type":"uint256"},{"internalType":"bool","name":"isRevoked","type":"bool"}],"stateMutability":"view","type":"function"}],"evm":{"bytecode":{"linkReferences":{},"object":"6080806040523461007e5733156100685760008054336001600160a01b03198216811783556040519290916001600160a01b0316907f8be0079c531659141344cd1fd0a4f28419497f9722a3daafe3b4186f6b6457e09080a3600180556113b190816100848239f35b631e4fbdf760e01b815260006004820152602490fd5b600080fdfe608080604052600436101561001357600080fd5b60003560e01c90816303a2c9bc14610deb575080631c2bc27b14610ad7578063715018a614610a7e578063733f769b14610a5857806373b41532146108d357806373bfdb0a146109405780638322a2aa146108d35780638da5cb5b146108aa578063a4832e651461082d578063c835faa1146106cb578063c9e45af91461042f578063d3bfe76a14610186578063d8186b3b1461014c5763f2fde38b146100b957600080fd5b34610147576020366003190112610147576100d2610e9c565b6100da610fde565b6001600160a01b0390811690811561012e57600054826bffffffffffffffffffffffff60a01b821617600055167f8be0079c531659141344cd1fd0a4f28419497f9722a3daafe3b4186f6b6457e0600080a3005b604051631e4fbdf760e01b815260006004820152602490fd5b600080fd5b34610147576020366003190112610147576001600160a01b0361016d610e9c565b1660005260026020526020604060002054604051908152f35b346101475760403660031901126101475761019f610e9c565b6101a7610eb2565b906101b061119a565b6001600160a01b039081169061020c906101cb83151561100a565b8316926101d984151561104e565b604051636eb1769f60e11b81523360048201526001600160a01b0390911660248201526020918290829081906044820190565b0381865afa90811561038257600091610402575b5080156103c55733600052600382526040600020836000528252604060002084600052825260ff6040600020541661038e5760405163095ea7b360e01b81528460048201526000602482015282816044816000885af190811561038257600091610355575b501561032057907ffd2589100207b846cb6d5fba06b4f3f49ba0e8851e16c95eec61424545834689913360005260038252604060002084600052825260406000208560005282526040600020600160ff1982541617905533600052600282526103136040600020604051906102f98261109a565b868252878583015283604083015260016060830152611106565b604051908152a360018055005b60405162461bcd60e51b815260048101839052600d60248201526c14995d9bdad94819985a5b1959609a1b6044820152606490fd5b6103759150833d851161037b575b61036d81836110cc565b8101906110ee565b85610285565b503d610363565b6040513d6000823e3d90fd5b60405162461bcd60e51b815260048101839052600f60248201526e105b1c9958591e481c995d9bdad959608a1b6044820152606490fd5b60405162461bcd60e51b81526004810183905260156024820152744e6f20617070726f76616c20746f207265766f6b6560581b6044820152606490fd5b90508181813d8311610428575b61041981836110cc565b81010312610147575184610220565b503d61040f565b346101475761043d36610f0f565b9261044c8484969394146111bd565b60009360009560005b8181106105db575061046686611335565b9361047087611335565b9560009260005b8181106104b8578a8a6104b48b6104a68c60405195869586526020860152608060408601526080850190610fa1565b908382036060850152610fa1565b0390f35b61051c6001600160a01b036020816104d96104d486888e611211565b611221565b166104e86104d4868c8a611211565b604051636eb1769f60e11b81526001600160a01b03808b166004830152909116602482015293849190829081906044820190565b03915afa918215610382578a8a8d948b936000916105a0575b5061054e575b505050505061054990611202565b610477565b8961057a6104d48861059398968896829f99610580878f6105499f6104d49061057a9261058a9d611211565b93611367565b911690528c611211565b91169052611202565b949050888c878a8a61053b565b9550505050506020823d6020116105d3575b816105bf602093836110cc565b8101031261014757878a8a8d945138610535565b3d91506105b2565b61063d6001600160a01b036105f46104d4848689611211565b166106036104d484878b611211565b604051636eb1769f60e11b81526001600160a01b03808a166004830152909116602482015260209290918391839190829081906044820190565b03915afa9182156103825760009261069d575b505080610667575b5061066290611202565b610455565b9661067490989198611202565b9681018091116106875796610662610658565b634e487b7160e01b600052601160045260246000fd5b90809250813d83116106c4575b6106b481836110cc565b8101031261014757518980610650565b503d6106aa565b34610147576060366003190112610147576106e4610e9c565b6106ec610eb2565b6106f4610ec8565b6106fc610fde565b6001600160a01b03918383169081156107f15783169261071d84151561100a565b82169361072b85151561104e565b604051636eb1769f60e11b81526001600160a01b039182166004820152921660248301526020918281604481875afa908115610382576000916107c4575b5061077057005b60005260038152604060002082600052815260406000209083600052526040600020600160ff198254161790557fb04ceabfb49123a88f84f1f208548958771d4bb6245e6339c20bebd30d6f0e4c600080a3005b90508281813d83116107ea575b6107db81836110cc565b81010312610147575185610769565b503d6107d1565b60405162461bcd60e51b8152602060048201526014602482015273496e76616c69642075736572206164647265737360601b6044820152606490fd5b3461014757604036600319011261014757610846610e9c565b6024359060018060a01b038091166000526002602052604060002080548310156101475760809261087691610f6f565b5081815416916001820154169060ff6003600283015492015416916040519384526020840152604083015215156060820152f35b34610147576000366003190112610147576000546040516001600160a01b039091168152602090f35b34610147576060366003190112610147576108ec610e9c565b6108f4610eb2565b906108fd610ec8565b9160018060a01b038092166000526003602052816040600020911660005260205260406000209116600052602052602060ff604060002054166040519015158152f35b3461014757602080600319360112610147576001600160a01b039081610964610e9c565b16600052600290818152604060002090815461097f81611235565b9361098d60405195866110cc565b81855260009384528284208386019491855b848410610a0a57505050505060405192818401908285525180915260408401929160005b8281106109d05785850386f35b83518051881686528083015188168684015260408082015190870152606090810151151590860152608090940193928101926001016109c3565b60048660019260409a989a51610a1f8161109a565b8c87541681528c85880154168382015285870154604082015260ff6003880154161515606082015281520193019301929196949661099f565b34610147576020610a74610a6b36610f0f565b9392909261124d565b6040519015158152f35b3461014757600036600319011261014757610a97610fde565b600080546001600160a01b0319811682556001600160a01b03167f8be0079c531659141344cd1fd0a4f28419497f9722a3daafe3b4186f6b6457e08280a3005b346101475760403660031901126101475767ffffffffffffffff60043581811161014757610b09903690600401610ede565b9190602491823590811161014757610b25903690600401610ede565b610b2d61119a565b610b388186146111bd565b8415610db85760328511610d7f5760009460005b818110610b8657866040519081527f13f35afc13158c558ca737bf6ef6c50b9d057ce6d417e06b7ecdfd90002ffd1b60203392a260018055005b610b946104d4828488611211565b610ba26104d4838688611211565b906001600160a01b0390811690610bba82151561100a565b821690610bc882151561104e565b604051636eb1769f60e11b81523360048201526001600160a01b0393909316602484015260208084604481855afa93841561038257600094610d50575b5083151580610d22575b610c26575b50505050610c2190611202565b610b4c565b60405163095ea7b360e01b815283600482015260008b82015281816044816000875af190811561038257600091610d05575b5015610c14577ffd2589100207b846cb6d5fba06b4f3f49ba0e8851e16c95eec6142454583468990610cf4859c610cef610c21989733600052600385526040600020876000528552604060002088600052855260406000206001908160ff19825416179055336000526002865260406000209060405192610cd88461109a565b8984528a8885015260408401526060830152611106565b611202565b9b604051908152a390888080610c14565b610d1c9150823d841161037b5761036d81836110cc565b8c610c58565b5033600052600381526040600020826000528152604060002083600052815260ff6040600020541615610c0f565b9080945081813d8311610d78575b610d6881836110cc565b810103126101475751928b610c05565b503d610d5e565b60405162461bcd60e51b81526020600482015260128186015271546f6f206d616e7920617070726f76616c7360701b6044820152606490fd5b60405162461bcd60e51b815260206004820152600c818601526b456d7074792061727261797360a01b6044820152606490fd5b3461014757606036600319011261014757602081610e07610e9c565b8180610e44610e14610eb2565b93610e1d610ec8565b636eb1769f60e11b84526001600160a01b0391821660048501521660248301526044820190565b03916001600160a01b03165afa801561038257600090610e6a575b602090604051908152f35b506020813d8211610e94575b81610e83602093836110cc565b810103126101475760209051610e5f565b3d9150610e76565b600435906001600160a01b038216820361014757565b602435906001600160a01b038216820361014757565b604435906001600160a01b038216820361014757565b9181601f840112156101475782359167ffffffffffffffff8311610147576020808501948460051b01011161014757565b906060600319830112610147576004356001600160a01b0381168103610147579167ffffffffffffffff916024358381116101475782610f5191600401610ede565b9390939260443591821161014757610f6b91600401610ede565b9091565b8054821015610f8b5760005260206000209060021b0190600090565b634e487b7160e01b600052603260045260246000fd5b90815180825260208080930193019160005b828110610fc1575050505090565b83516001600160a01b031685529381019392810192600101610fb3565b6000546001600160a01b03163303610ff257565b60405163118cdaa760e01b8152336004820152602490fd5b1561101157565b60405162461bcd60e51b8152602060048201526015602482015274496e76616c696420746f6b656e206164647265737360581b6044820152606490fd5b1561105557565b60405162461bcd60e51b815260206004820152601760248201527f496e76616c6964207370656e64657220616464726573730000000000000000006044820152606490fd5b6080810190811067ffffffffffffffff8211176110b657604052565b634e487b7160e01b600052604160045260246000fd5b90601f8019910116810190811067ffffffffffffffff8211176110b657604052565b90816020910312610147575180151581036101475790565b8054680100000000000000008110156110b65761112891600182018155610f6f565b61118457600360609160018060a01b03808551166bffffffffffffffffffffffff60a01b90818454161783556001830191602087015116908254161790556040840151600282015501910151151560ff80198354169116179055565b634e487b7160e01b600052600060045260246000fd5b6002600154146111ab576002600155565b604051633ee5aeb560e01b8152600490fd5b156111c457565b60405162461bcd60e51b8152602060048201526016602482015275082e4e4c2f2e640d8cadccee8d040dad2e6dac2e8c6d60531b6044820152606490fd5b60001981146106875760010190565b9190811015610f8b5760051b0190565b356001600160a01b03811681036101475790565b67ffffffffffffffff81116110b65760051b60200190565b91939061125b8286146111bd565b60005b85811061127057505050505050600090565b6001600160a01b036112866104d4838986611211565b166112956104d4838689611211565b60408051636eb1769f60e11b81526001600160a01b03888116600483015292909216602483015290916020908190849060449082905afa91821561132b57506000916112fc575b5090506112f1576112ec90611202565b61125e565b505050505050600190565b82813d8311611324575b61131081836110cc565b8101031261132157505180386112dc565b80fd5b503d611306565b513d6000823e3d90fd5b9061133f82611235565b61134c60405191826110cc565b828152809261135d601f1991611235565b0190602036910137565b8051821015610f8b5760209160051b01019056fea2646970667358221220544fb1a26fb359455f357bb664c675aaab04633803438ac27cd6a45f7b6df5a164736f6c63430008140033","opcodes":"PUSH1 0x80 DUP1 PUSH1 0x40 MSTORE CALLVALUE PUSH2 0x7E JUMPI CALLER ISZERO PUSH2 0x68 JUMPI PUSH1 0x0 DUP1 SLOAD CALLER PUSH1 0x1 PUSH1 0x1 PUSH1 0xA0 SHL SUB NOT DUP3 AND DUP2 OR DUP4 SSTORE PUSH1 0x40 MLOAD SWAP3 SWAP1 SWAP2 PUSH1 0x1 PUSH1 0x1 PUSH1 0xA0 SHL SUB AND SWAP1 PUSH32 0x8BE0079C531659141344CD1FD0A4F28419497F9722A3DAAFE3B4186F6B6457E0 SWAP1 DUP1 LOG3 PUSH1 0x1 DUP1 SSTORE PUSH2 0x13B1 SWAP1 DUP2 PUSH2 0x84 DUP3 CODECOPY RETURN JUMPDEST PUSH4 0x1E4FBDF7 PUSH1 0xE0 SHL DUP2 MSTORE PUSH1 0x0 PUSH1 0x4 DUP3 ADD MSTORE PUSH1 0x24 SWAP1 REVERT JUMPDEST PUSH1 0x0 DUP1 REVERT INVALID PUSH1 0x80 DUP1 PUSH1 0x40 MSTORE PUSH1 0x4 CALLDATASIZE LT ISZERO PUSH2 0x13 JUMPI PUSH1 0x0 DUP1 REVERT JUMPDEST PUSH1 0x0 CALLDATALOAD PUSH1 0xE0 SHR SWAP1 DUP2 PUSH4 0x3A2C9BC EQ PUSH2 0xDEB JUMPI POP DUP1 PUSH4 0x1C2BC27B EQ PUSH2 0xAD7 JUMPI DUP1 PUSH4 0x715018A6 EQ PUSH2 0xA7E JUMPI DUP1 PUSH4 0x733F769B EQ PUSH2 0xA58 JUMPI DUP1 PUSH4 0x73B41532 EQ PUSH2 0x8D3 JUMPI DUP1 PUSH4 0x73BFDB0A EQ PUSH2 0x940 JUMPI DUP1 PUSH4 0x8322A2AA EQ PUSH2 0x8D3 JUMPI DUP1 PUSH4 0x8DA5CB5B EQ PUSH2 0x8AA JUMPI DUP1 PUSH4 0xA4832E65 EQ PUSH2 0x82D JUMPI DUP1 PUSH4 0xC835FAA1 EQ PUSH2 0x6CB JUMPI DUP1 PUSH4 0xC9E45AF9 EQ PUSH2 0x42F JUMPI DUP1 PUSH4 0xD3BFE76A EQ PUSH2 0x186 JUMPI DUP1 PUSH4 0xD8186B3B EQ PUSH2 0x14C JUMPI PUSH4 0xF2FDE38B EQ PUSH2 0xB9 JUMPI PUSH1 0x0 DUP1 REVERT JUMPDEST CALLVALUE PUSH2 0x147 JUMPI PUSH1 0x20 CALLDATASIZE PUSH1 0x3 NOT ADD SLT PUSH2 0x147 JUMPI PUSH2 0xD2 PUSH2 0xE9C JUMP JUMPDEST PUSH2 0xDA PUSH2 0xFDE JUMP JUMPDEST PUSH1 0x1 PUSH1 0x1 PUSH1 0xA0 SHL SUB SWAP1 DUP2 AND SWAP1 DUP2 ISZERO PUSH2 0x12E JUMPI PUSH1 0x0 SLOAD DUP3 PUSH12 0xFFFFFFFFFFFFFFFFFFFFFFFF PUSH1 0xA0 SHL DUP3 AND OR PUSH1 0x0 SSTORE AND PUSH32 0x8BE0079C531659141344CD1FD0A4F28419497F9722A3DAAFE3B4186F6B6457E0 PUSH1 0x0 DUP1 LOG3 STOP JUMPDEST PUSH1 0x40 MLOAD PUSH4 0x1E4FBDF7 PUSH1 0xE0 SHL DUP2 MSTORE PUSH1 0x0 PUSH1 0x4 DUP3 ADD MSTORE PUSH1 0x24 SWAP1 REVERT JUMPDEST PUSH1 0x0 DUP1 REVERT JUMPDEST CALLVALUE PUSH2 0x147 JUMPI PUSH1 0x20 CALLDATASIZE PUSH1 0x3 NOT ADD SLT PUSH2 0x147 JUMPI PUSH1 0x1 PUSH1 0x1 PUSH1 0xA0 SHL SUB PUSH2 0x16D PUSH2 0xE9C JUMP JUMPDEST AND PUSH1 0x0 MSTORE PUSH1 0x2 PUSH1 0x20 MSTORE PUSH1 0x20 PUSH1 0x40 PUSH1 0x0 KECCAK256 SLOAD PUSH1 0x40 MLOAD SWAP1 DUP2 MSTORE RETURN JUMPDEST CALLVALUE PUSH2 0x147 JUMPI PUSH1 0x40 CALLDATASIZE PUSH1 0x3 NOT ADD SLT PUSH2 0x147 JUMPI PUSH2 0x19F PUSH2 0xE9C JUMP JUMPDEST PUSH2 0x1A7 PUSH2 0xEB2 JUMP JUMPDEST SWAP1 PUSH2 0x1B0 PUSH2 0x119A JUMP JUMPDEST PUSH1 0x1 PUSH1 0x1 PUSH1 0xA0 SHL SUB SWAP1 DUP2 AND SWAP1 PUSH2 0x20C SWAP1 PUSH2 0x1CB DUP4 ISZERO ISZERO PUSH2 0x100A JUMP JUMPDEST DUP4 AND SWAP3 PUSH2 0x1D9 DUP5 ISZERO ISZERO PUSH2 0x104E JUMP JUMPDEST PUSH1 0x40 MLOAD PUSH4 0x6EB1769F PUSH1 0xE1 SHL DUP2 MSTORE CALLER PUSH1 0x4 DUP3 ADD MSTORE PUSH1 0x1 PUSH1 0x1 PUSH1 0xA0 SHL SUB SWAP1 SWAP2 AND PUSH1 0x24 DUP3 ADD MSTORE PUSH1 0x20 SWAP2 DUP3 SWAP1 DUP3 SWAP1 DUP2 SWAP1 PUSH1 0x44 DUP3 ADD SWAP1 JUMP JUMPDEST SUB DUP2 DUP7 GAS STATICCALL SWAP1 DUP2 ISZERO PUSH2 0x382 JUMPI PUSH1 0x0 SWAP2 PUSH2 0x402 JUMPI JUMPDEST POP DUP1 ISZERO PUSH2 0x3C5 JUMPI CALLER PUSH1 0x0 MSTORE PUSH1 0x3 DUP3 MSTORE PUSH1 0x40 PUSH1 0x0 KECCAK256 DUP4 PUSH1 0x0 MSTORE DUP3 MSTORE PUSH1 0x40 PUSH1 0x0 KECCAK256 DUP5 PUSH1 0x0 MSTORE DUP3 MSTORE PUSH1 0xFF PUSH1 0x40 PUSH1 0x0 KECCAK256 SLOAD AND PUSH2 0x38E JUMPI PUSH1 0x40 MLOAD PUSH4 0x95EA7B3 PUSH1 0xE0 SHL DUP2 MSTORE DUP5 PUSH1 0x4 DUP3 ADD MSTORE PUSH1 0x0 PUSH1 0x24 DUP3 ADD MSTORE DUP3 DUP2 PUSH1 0x44 DUP2 PUSH1 0x0 DUP9 GAS CALL SWAP1 DUP2 ISZERO PUSH2 0x382 JUMPI PUSH1 0x0 SWAP2 PUSH2 0x355 JUMPI JUMPDEST POP ISZERO PUSH2 0x320 JUMPI SWAP1 PUSH32 0xFD2589100207B846CB6D5FBA06B4F3F49BA0E8851E16C95EEC61424545834689 SWAP2 CALLER PUSH1 0x0 MSTORE PUSH1 0x3 DUP3 MSTORE PUSH1 0x40 PUSH1 0x0 KECCAK256 DUP5 PUSH1 0x0 MSTORE DUP3 MSTORE PUSH1 0x40 PUSH1 0x0 KECCAK256 DUP6 PUSH1 0x0 MSTORE DUP3 MSTORE PUSH1 0x40 PUSH1 0x0 KECCAK256 PUSH1 0x1 PUSH1 0xFF NOT DUP3 SLOAD AND OR SWAP1 SSTORE CALLER PUSH1 0x0 MSTORE PUSH1 0x2 DUP3 MSTORE PUSH2 0x313 PUSH1 0x40 PUSH1 0x0 KECCAK256 PUSH1 0x40 MLOAD SWAP1 PUSH2 0x2F9 DUP3 PUSH2 0x109A JUMP JUMPDEST DUP7 DUP3 MSTORE DUP8 DUP6 DUP4 ADD MSTORE DUP4 PUSH1 0x40 DUP4 ADD MSTORE PUSH1 0x1 PUSH1 0x60 DUP4 ADD MSTORE PUSH2 0x1106 JUMP JUMPDEST PUSH1 0x40 MLOAD SWAP1 DUP2 MSTORE LOG3 PUSH1 0x1 DUP1 SSTORE STOP JUMPDEST PUSH1 0x40 MLOAD PUSH3 0x461BCD PUSH1 0xE5 SHL DUP2 MSTORE PUSH1 0x4 DUP2 ADD DUP4 SWAP1 MSTORE PUSH1 0xD PUSH1 0x24 DUP3 ADD MSTORE PUSH13 0x14995D9BDAD94819985A5B1959 PUSH1 0x9A SHL PUSH1 0x44 DUP3 ADD MSTORE PUSH1 0x64 SWAP1 REVERT JUMPDEST PUSH2 0x375 SWAP2 POP DUP4 RETURNDATASIZE DUP6 GT PUSH2 0x37B JUMPI JUMPDEST PUSH2 0x36D DUP2 DUP4 PUSH2 0x10CC JUMP JUMPDEST DUP2 ADD SWAP1 PUSH2 0x10EE JUMP JUMPDEST DUP6 PUSH2 0x285 JUMP JUMPDEST POP RETURNDATASIZE PUSH2 0x363 JUMP JUMPDEST PUSH1 0x40 MLOAD RETURNDATASIZE PUSH1 0x0 DUP3 RETURNDATACOPY RETURNDATASIZE SWAP1 REVERT JUMPDEST PUSH1 0x40 MLOAD PUSH3 0x461BCD PUSH1 0xE5 SHL DUP2 MSTORE PUSH1 0x4 DUP2 ADD DUP4 SWAP1 MSTORE PUSH1 0xF PUSH1 0x24 DUP3 ADD MSTORE PUSH15 0x105B1C9958591E481C995D9BDAD959 PUSH1 0x8A SHL PUSH1 0x44 DUP3 ADD MSTORE PUSH1 0x64 SWAP1 REVERT JUMPDEST PUSH1 0x40 MLOAD PUSH3 0x461BCD PUSH1 0xE5 SHL DUP2 MSTORE PUSH1 0x4 DUP2 ADD DUP4 SWAP1 MSTORE PUSH1 0x15 PUSH1 0x24 DUP3 ADD MSTORE PUSH21 0x4E6F20617070726F76616C20746F207265766F6B65 PUSH1 0x58 SHL PUSH1 0x44 DUP3 ADD MSTORE PUSH1 0x64 SWAP1 REVERT JUMPDEST SWAP1 POP DUP2 DUP2 DUP2 RETURNDATASIZE DUP4 GT PUSH2 0x428 JUMPI JUMPDEST PUSH2 0x419 DUP2 DUP4 PUSH2 0x10CC JUMP JUMPDEST DUP2 ADD SUB SLT PUSH2 0x147 JUMPI MLOAD DUP5 PUSH2 0x220 JUMP JUMPDEST POP RETURNDATASIZE PUSH2 0x40F JUMP JUMPDEST CALLVALUE PUSH2 0x147 JUMPI PUSH2 0x43D CALLDATASIZE PUSH2 0xF0F JUMP JUMPDEST SWAP3 PUSH2 0x44C DUP5 DUP5 SWAP7 SWAP4 SWAP5 EQ PUSH2 0x11BD JUMP JUMPDEST PUSH1 0x0 SWAP4 PUSH1 0x0 SWAP6 PUSH1 0x0 JUMPDEST DUP2 DUP2 LT PUSH2 0x5DB JUMPI POP PUSH2 0x466 DUP7 PUSH2 0x1335 JUMP JUMPDEST SWAP4 PUSH2 0x470 DUP8 PUSH2 0x1335 JUMP JUMPDEST SWAP6 PUSH1 0x0 SWAP3 PUSH1 0x0 JUMPDEST DUP2 DUP2 LT PUSH2 0x4B8 JUMPI DUP11 DUP11 PUSH2 0x4B4 DUP12 PUSH2 0x4A6 DUP13 PUSH1 0x40 MLOAD SWAP6 DUP7 SWAP6 DUP7 MSTORE PUSH1 0x20 DUP7 ADD MSTORE PUSH1 0x80 PUSH1 0x40 DUP7 ADD MSTORE PUSH1 0x80 DUP6 ADD SWAP1 PUSH2 0xFA1 JUMP JUMPDEST SWAP1 DUP4 DUP3 SUB PUSH1 0x60 DUP6 ADD MSTORE PUSH2 0xFA1 JUMP JUMPDEST SUB SWAP1 RETURN JUMPDEST PUSH2 0x51C PUSH1 0x1 PUSH1 0x1 PUSH1 0xA0 SHL SUB PUSH1 0x20 DUP2 PUSH2 0x4D9 PUSH2 0x4D4 DUP7 DUP9 DUP15 PUSH2 0x1211 JUMP JUMPDEST PUSH2 0x1221 JUMP JUMPDEST AND PUSH2 0x4E8 PUSH2 0x4D4 DUP7 DUP13 DUP11 PUSH2 0x1211 JUMP JUMPDEST PUSH1 0x40 MLOAD PUSH4 0x6EB1769F PUSH1 0xE1 SHL DUP2 MSTORE PUSH1 0x1 PUSH1 0x1 PUSH1 0xA0 SHL SUB DUP1 DUP12 AND PUSH1 0x4 DUP4 ADD MSTORE SWAP1 SWAP2 AND PUSH1 0x24 DUP3 ADD MSTORE SWAP4 DUP5 SWAP2 SWAP1 DUP3 SWAP1 DUP2 SWAP1 PUSH1 0x44 DUP3 ADD SWAP1 JUMP JUMPDEST SUB SWAP2 GAS STATICCALL SWAP2 DUP3 ISZERO PUSH2 0x382 JUMPI DUP11 DUP11 DUP14 SWAP5 DUP12 SWAP4 PUSH1 0x0 SWAP2 PUSH2 0x5A0 JUMPI JUMPDEST POP PUSH2 0x54E JUMPI JUMPDEST POP POP POP POP POP PUSH2 0x549 SWAP1 PUSH2 0x1202 JUMP JUMPDEST PUSH2 0x477 JUMP JUMPDEST DUP10 PUSH2 0x57A PUSH2 0x4D4 DUP9 PUSH2 0x593 SWAP9 SWAP7 DUP9 SWAP7 DUP3 SWAP16 SWAP10 PUSH2 0x580 DUP8 DUP16 PUSH2 0x549 SWAP16 PUSH2 0x4D4 SWAP1 PUSH2 0x57A SWAP3 PUSH2 0x58A SWAP14 PUSH2 0x1211 JUMP JUMPDEST SWAP4 PUSH2 0x1367 JUMP JUMPDEST SWAP2 AND SWAP1 MSTORE DUP13 PUSH2 0x1211 JUMP JUMPDEST SWAP2 AND SWAP1 MSTORE PUSH2 0x1202 JUMP JUMPDEST SWAP5 SWAP1 POP DUP9 DUP13 DUP8 DUP11 DUP11 PUSH2 0x53B JUMP JUMPDEST SWAP6 POP POP POP POP POP PUSH1 0x20 DUP3 RETURNDATASIZE PUSH1 0x20 GT PUSH2 0x5D3 JUMPI JUMPDEST DUP2 PUSH2 0x5BF PUSH1 0x20 SWAP4 DUP4 PUSH2 0x10CC JUMP JUMPDEST DUP2 ADD SUB SLT PUSH2 0x147 JUMPI DUP8 DUP11 DUP11 DUP14 SWAP5 MLOAD CODESIZE PUSH2 0x535 JUMP JUMPDEST RETURNDATASIZE SWAP2 POP PUSH2 0x5B2 JUMP JUMPDEST PUSH2 0x63D PUSH1 0x1 PUSH1 0x1 PUSH1 0xA0 SHL SUB PUSH2 0x5F4 PUSH2 0x4D4 DUP5 DUP7 DUP10 PUSH2 0x1211 JUMP JUMPDEST AND PUSH2 0x603 PUSH2 0x4D4 DUP5 DUP8 DUP12 PUSH2 0x1211 JUMP JUMPDEST PUSH1 0x40 MLOAD PUSH4 0x6EB1769F PUSH1 0xE1 SHL DUP2 MSTORE PUSH1 0x1 PUSH1 0x1 PUSH1 0xA0 SHL SUB DUP1 DUP11 AND PUSH1 0x4 DUP4 ADD MSTORE SWAP1 SWAP2 AND PUSH1 0x24 DUP3 ADD MSTORE PUSH1 0x20 SWAP3 SWAP1 SWAP2 DUP4 SWAP2 DUP4 SWAP2 SWAP1 DUP3 SWAP1 DUP2 SWAP1 PUSH1 0x44 DUP3 ADD SWAP1 JUMP JUMPDEST SUB SWAP2 GAS STATICCALL SWAP2 DUP3 ISZERO PUSH2 0x382 JUMPI PUSH1 0x0 SWAP3 PUSH2 0x69D JUMPI JUMPDEST POP POP DUP1 PUSH2 0x667 JUMPI JUMPDEST POP PUSH2 0x662 SWAP1 PUSH2 0x1202 JUMP JUMPDEST PUSH2 0x455 JUMP JUMPDEST SWAP7 PUSH2 0x674 SWAP1 SWAP9 SWAP2 SWAP9 PUSH2 0x1202 JUMP JUMPDEST SWAP7 DUP2 ADD DUP1 SWAP2 GT PUSH2 0x687 JUMPI SWAP7 PUSH2 0x662 PUSH2 0x658 JUMP JUMPDEST PUSH4 0x4E487B71 PUSH1 0xE0 SHL PUSH1 0x0 MSTORE PUSH1 0x11 PUSH1 0x4 MSTORE PUSH1 0x24 PUSH1 0x0 REVERT JUMPDEST SWAP1 DUP1 SWAP3 POP DUP2 RETURNDATASIZE DUP4 GT PUSH2 0x6C4 JUMPI JUMPDEST PUSH2 0x6B4 DUP2 DUP4 PUSH2 0x10CC JUMP JUMPDEST DUP2 ADD SUB SLT PUSH2 0x147 JUMPI MLOAD DUP10 DUP1 PUSH2 0x650 JUMP JUMPDEST POP RETURNDATASIZE PUSH2 0x6AA JUMP JUMPDEST CALLVALUE PUSH2 0x147 JUMPI PUSH1 0x60 CALLDATASIZE PUSH1 0x3 NOT ADD SLT PUSH2 0x147 JUMPI PUSH2 0x6E4 PUSH2 0xE9C JUMP JUMPDEST PUSH2 0x6EC PUSH2 0xEB2 JUMP JUMPDEST PUSH2 0x6F4 PUSH2 0xEC8 JUMP JUMPDEST PUSH2 0x6FC PUSH2 0xFDE JUMP JUMPDEST PUSH1 0x1 PUSH1 0x1 PUSH1 0xA0 SHL SUB SWAP2 DUP4 DUP4 AND SWAP1 DUP2 ISZERO PUSH2 0x7F1 JUMPI DUP4 AND SWAP3 PUSH2 0x71D DUP5 ISZERO ISZERO PUSH2 0x100A JUMP JUMPDEST DUP3 AND SWAP4 PUSH2 0x72B DUP6 ISZERO ISZERO PUSH2 0x104E JUMP JUMPDEST PUSH1 0x40 MLOAD PUSH4 0x6EB1769F PUSH1 0xE1 SHL DUP2 MSTORE PUSH1 0x1 PUSH1 0x1 PUSH1 0xA0 SHL SUB SWAP2 DUP3 AND PUSH1 0x4 DUP3 ADD MSTORE SWAP3 AND PUSH1 0x24 DUP4 ADD MSTORE PUSH1 0x20 SWAP2 DUP3 DUP2 PUSH1 0x44 DUP2 DUP8 GAS STATICCALL SWAP1 DUP2 ISZERO PUSH2 0x382 JUMPI PUSH1 0x0 SWAP2 PUSH2 0x7C4 JUMPI JUMPDEST POP PUSH2 0x770 JUMPI STOP JUMPDEST PUSH1 0x0 MSTORE PUSH1 0x3 DUP2 MSTORE PUSH1 0x40 PUSH1 0x0 KECCAK256 DUP3 PUSH1 0x0 MSTORE DUP2 MSTORE PUSH1 0x40 PUSH1 0x0 KECCAK256 SWAP1 DUP4 PUSH1 0x0 MSTORE MSTORE PUSH1 0x40 PUSH1 0x0 KECCAK256 PUSH1 0x1 PUSH1 0xFF NOT DUP3 SLOAD AND OR SWAP1 SSTORE PUSH32 0xB04CEABFB49123A88F84F1F208548958771D4BB6245E6339C20BEBD30D6F0E4C PUSH1 0x0 DUP1 LOG3 STOP JUMPDEST SWAP1 POP DUP3 DUP2 DUP2 RETURNDATASIZE DUP4 GT PUSH2 0x7EA JUMPI JUMPDEST PUSH2 0x7DB DUP2 DUP4 PUSH2 0x10CC JUMP JUMPDEST DUP2 ADD SUB SLT PUSH2 0x147 JUMPI MLOAD DUP6 PUSH2 0x769 JUMP JUMPDEST POP RETURNDATASIZE PUSH2 0x7D1 JUMP JUMPDEST PUSH1 0x40 MLOAD PUSH3 0x461BCD PUSH1 0xE5 SHL DUP2 MSTORE PUSH1 0x20 PUSH1 0x4 DUP3 ADD MSTORE PUSH1 0x14 PUSH1 0x24 DUP3 ADD MSTORE PUSH20 0x496E76616C696420757365722061646472657373 PUSH1 0x60 SHL PUSH1 0x44 DUP3 ADD MSTORE PUSH1 0x64 SWAP1 REVERT JUMPDEST CALLVALUE PUSH2 0x147 JUMPI PUSH1 0x40 CALLDATASIZE PUSH1 0x3 NOT ADD SLT PUSH2 0x147 JUMPI PUSH2 0x846 PUSH2 0xE9C JUMP JUMPDEST PUSH1 0x24 CALLDATALOAD SWAP1 PUSH1 0x1 DUP1 PUSH1 0xA0 SHL SUB DUP1 SWAP2 AND PUSH1 0x0 MSTORE PUSH1 0x2 PUSH1 0x20 MSTORE PUSH1 0x40 PUSH1 0x0 KECCAK256 DUP1 SLOAD DUP4 LT ISZERO PUSH2 0x147 JUMPI PUSH1 0x80 SWAP3 PUSH2 0x876 SWAP2 PUSH2 0xF6F JUMP JUMPDEST POP DUP2 DUP2 SLOAD AND SWAP2 PUSH1 0x1 DUP3 ADD SLOAD AND SWAP1 PUSH1 0xFF PUSH1 0x3 PUSH1 0x2 DUP4 ADD SLOAD SWAP3 ADD SLOAD AND SWAP2 PUSH1 0x40 MLOAD SWAP4 DUP5 MSTORE PUSH1 0x20 DUP5 ADD MSTORE PUSH1 0x40 DUP4 ADD MSTORE ISZERO ISZERO PUSH1 0x60 DUP3 ADD MSTORE RETURN JUMPDEST CALLVALUE PUSH2 0x147 JUMPI PUSH1 0x0 CALLDATASIZE PUSH1 0x3 NOT ADD SLT PUSH2 0x147 JUMPI PUSH1 0x0 SLOAD PUSH1 0x40 MLOAD PUSH1 0x1 PUSH1 0x1 PUSH1 0xA0 SHL SUB SWAP1 SWAP2 AND DUP2 MSTORE PUSH1 0x20 SWAP1 RETURN JUMPDEST CALLVALUE PUSH2 0x147 JUMPI PUSH1 0x60 CALLDATASIZE PUSH1 0x3 NOT ADD SLT PUSH2 0x147 JUMPI PUSH2 0x8EC PUSH2 0xE9C JUMP JUMPDEST PUSH2 0x8F4 PUSH2 0xEB2 JUMP JUMPDEST SWAP1 PUSH2 0x8FD PUSH2 0xEC8 JUMP JUMPDEST SWAP2 PUSH1 0x1 DUP1 PUSH1 0xA0 SHL SUB DUP1 SWAP3 AND PUSH1 0x0 MSTORE PUSH1 0x3 PUSH1 0x20 MSTORE DUP2 PUSH1 0x40 PUSH1 0x0 KECCAK256 SWAP2 AND PUSH1 0x0 MSTORE PUSH1 0x20 MSTORE PUSH1 0x40 PUSH1 0x0 KECCAK256 SWAP2 AND PUSH1 0x0 MSTORE PUSH1 0x20 MSTORE PUSH1 0x20 PUSH1 0xFF PUSH1 0x40 PUSH1 0x0 KECCAK256 SLOAD AND PUSH1 0x40 MLOAD SWAP1 ISZERO ISZERO DUP2 MSTORE RETURN JUMPDEST CALLVALUE PUSH2 0x147 JUMPI PUSH1 0x20 DUP1 PUSH1 0x3 NOT CALLDATASIZE ADD SLT PUSH2 0x147 JUMPI PUSH1 0x1 PUSH1 0x1 PUSH1 0xA0 SHL SUB SWAP1 DUP2 PUSH2 0x964 PUSH2 0xE9C JUMP JUMPDEST AND PUSH1 0x0 MSTORE PUSH1 0x2 SWAP1 DUP2 DUP2 MSTORE PUSH1 0x40 PUSH1 0x0 KECCAK256 SWAP1 DUP2 SLOAD PUSH2 0x97F DUP2 PUSH2 0x1235 JUMP JUMPDEST SWAP4 PUSH2 0x98D PUSH1 0x40 MLOAD SWAP6 DUP7 PUSH2 0x10CC JUMP JUMPDEST DUP2 DUP6 MSTORE PUSH1 0x0 SWAP4 DUP5 MSTORE DUP3 DUP5 KECCAK256 DUP4 DUP7 ADD SWAP5 SWAP2 DUP6 JUMPDEST DUP5 DUP5 LT PUSH2 0xA0A JUMPI POP POP POP POP POP PUSH1 0x40 MLOAD SWAP3 DUP2 DUP5 ADD SWAP1 DUP3 DUP6 MSTORE MLOAD DUP1 SWAP2 MSTORE PUSH1 0x40 DUP5 ADD SWAP3 SWAP2 PUSH1 0x0 JUMPDEST DUP3 DUP2 LT PUSH2 0x9D0 JUMPI DUP6 DUP6 SUB DUP7 RETURN JUMPDEST DUP4 MLOAD DUP1 MLOAD DUP9 AND DUP7 MSTORE DUP1 DUP4 ADD MLOAD DUP9 AND DUP7 DUP5 ADD MSTORE PUSH1 0x40 DUP1 DUP3 ADD MLOAD SWAP1 DUP8 ADD MSTORE PUSH1 0x60 SWAP1 DUP2 ADD MLOAD ISZERO ISZERO SWAP1 DUP7 ADD MSTORE PUSH1 0x80 SWAP1 SWAP5 ADD SWAP4 SWAP3 DUP2 ADD SWAP3 PUSH1 0x1 ADD PUSH2 0x9C3 JUMP JUMPDEST PUSH1 0x4 DUP7 PUSH1 0x1 SWAP3 PUSH1 0x40 SWAP11 SWAP9 SWAP11 MLOAD PUSH2 0xA1F DUP2 PUSH2 0x109A JUMP JUMPDEST DUP13 DUP8 SLOAD AND DUP2 MSTORE DUP13 DUP6 DUP9 ADD SLOAD AND DUP4 DUP3 ADD MSTORE DUP6 DUP8 ADD SLOAD PUSH1 0x40 DUP3 ADD MSTORE PUSH1 0xFF PUSH1 0x3 DUP9 ADD SLOAD AND ISZERO ISZERO PUSH1 0x60 DUP3 ADD MSTORE DUP2 MSTORE ADD SWAP4 ADD SWAP4 ADD SWAP3 SWAP2 SWAP7 SWAP5 SWAP7 PUSH2 0x99F JUMP JUMPDEST CALLVALUE PUSH2 0x147 JUMPI PUSH1 0x20 PUSH2 0xA74 PUSH2 0xA6B CALLDATASIZE PUSH2 0xF0F JUMP JUMPDEST SWAP4 SWAP3 SWAP1 SWAP3 PUSH2 0x124D JUMP JUMPDEST PUSH1 0x40 MLOAD SWAP1 ISZERO ISZERO DUP2 MSTORE RETURN JUMPDEST CALLVALUE PUSH2 0x147 JUMPI PUSH1 0x0 CALLDATASIZE PUSH1 0x3 NOT ADD SLT PUSH2 0x147 JUMPI PUSH2 0xA97 PUSH2 0xFDE JUMP JUMPDEST PUSH1 0x0 DUP1 SLOAD PUSH1 0x1 PUSH1 0x1 PUSH1 0xA0 SHL SUB NOT DUP2 AND DUP3 SSTORE PUSH1 0x1 PUSH1 0x1 PUSH1 0xA0 SHL SUB AND PUSH32 0x8BE0079C531659141344CD1FD0A4F28419497F9722A3DAAFE3B4186F6B6457E0 DUP3 DUP1 LOG3 STOP JUMPDEST CALLVALUE PUSH2 0x147 JUMPI PUSH1 0x40 CALLDATASIZE PUSH1 0x3 NOT ADD SLT PUSH2 0x147 JUMPI PUSH8 0xFFFFFFFFFFFFFFFF PUSH1 0x4 CALLDATALOAD DUP2 DUP2 GT PUSH2 0x147 JUMPI PUSH2 0xB09 SWAP1 CALLDATASIZE SWAP1 PUSH1 0x4 ADD PUSH2 0xEDE JUMP JUMPDEST SWAP2 SWAP1 PUSH1 0x24 SWAP2 DUP3 CALLDATALOAD SWAP1 DUP2 GT PUSH2 0x147 JUMPI PUSH2 0xB25 SWAP1 CALLDATASIZE SWAP1 PUSH1 0x4 ADD PUSH2 0xEDE JUMP JUMPDEST PUSH2 0xB2D PUSH2 0x119A JUMP JUMPDEST PUSH2 0xB38 DUP2 DUP7 EQ PUSH2 0x11BD JUMP JUMPDEST DUP5 ISZERO PUSH2 0xDB8 JUMPI PUSH1 0x32 DUP6 GT PUSH2 0xD7F JUMPI PUSH1 0x0 SWAP5 PUSH1 0x0 JUMPDEST DUP2 DUP2 LT PUSH2 0xB86 JUMPI DUP7 PUSH1 0x40 MLOAD SWAP1 DUP2 MSTORE PUSH32 0x13F35AFC13158C558CA737BF6EF6C50B9D057CE6D417E06B7ECDFD90002FFD1B PUSH1 0x20 CALLER SWAP3 LOG2 PUSH1 0x1 DUP1 SSTORE STOP JUMPDEST PUSH2 0xB94 PUSH2 0x4D4 DUP3 DUP5 DUP9 PUSH2 0x1211 JUMP JUMPDEST PUSH2 0xBA2 PUSH2 0x4D4 DUP4 DUP7 DUP9 PUSH2 0x1211 JUMP JUMPDEST SWAP1 PUSH1 0x1 PUSH1 0x1 PUSH1 0xA0 SHL SUB SWAP1 DUP2 AND SWAP1 PUSH2 0xBBA DUP3 ISZERO ISZERO PUSH2 0x100A JUMP JUMPDEST DUP3 AND SWAP1 PUSH2 0xBC8 DUP3 ISZERO ISZERO PUSH2 0x104E JUMP JUMPDEST PUSH1 0x40 MLOAD PUSH4 0x6EB1769F PUSH1 0xE1 SHL DUP2 MSTORE CALLER PUSH1 0x4 DUP3 ADD MSTORE PUSH1 0x1 PUSH1 0x1 PUSH1 0xA0 SHL SUB SWAP4 SWAP1 SWAP4 AND PUSH1 0x24 DUP5 ADD MSTORE PUSH1 0x20 DUP1 DUP5 PUSH1 0x44 DUP2 DUP6 GAS STATICCALL SWAP4 DUP5 ISZERO PUSH2 0x382 JUMPI PUSH1 0x0 SWAP5 PUSH2 0xD50 JUMPI JUMPDEST POP DUP4 ISZERO ISZERO DUP1 PUSH2 0xD22 JUMPI JUMPDEST PUSH2 0xC26 JUMPI JUMPDEST POP POP POP POP PUSH2 0xC21 SWAP1 PUSH2 0x1202 JUMP JUMPDEST PUSH2 0xB4C JUMP JUMPDEST PUSH1 0x40 MLOAD PUSH4 0x95EA7B3 PUSH1 0xE0 SHL DUP2 MSTORE DUP4 PUSH1 0x4 DUP3 ADD MSTORE PUSH1 0x0 DUP12 DUP3 ADD MSTORE DUP2 DUP2 PUSH1 0x44 DUP2 PUSH1 0x0 DUP8 GAS CALL SWAP1 DUP2 ISZERO PUSH2 0x382 JUMPI PUSH1 0x0 SWAP2 PUSH2 0xD05 JUMPI JUMPDEST POP ISZERO PUSH2 0xC14 JUMPI PUSH32 0xFD2589100207B846CB6D5FBA06B4F3F49BA0E8851E16C95EEC61424545834689 SWAP1 PUSH2 0xCF4 DUP6 SWAP13 PUSH2 0xCEF PUSH2 0xC21 SWAP9 SWAP8 CALLER PUSH1 0x0 MSTORE PUSH1 0x3 DUP6 MSTORE PUSH1 0x40 PUSH1 0x0 KECCAK256 DUP8 PUSH1 0x0 MSTORE DUP6 MSTORE PUSH1 0x40 PUSH1 0x0 KECCAK256 DUP9 PUSH1 0x0 MSTORE DUP6 MSTORE PUSH1 0x40 PUSH1 0x0 KECCAK256 PUSH1 0x1 SWAP1 DUP2 PUSH1 0xFF NOT DUP3 SLOAD AND OR SWAP1 SSTORE CALLER PUSH1 0x0 MSTORE PUSH1 0x2 DUP7 MSTORE PUSH1 0x40 PUSH1 0x0 KECCAK256 SWAP1 PUSH1 0x40 MLOAD SWAP3 PUSH2 0xCD8 DUP5 PUSH2 0x109A JUMP JUMPDEST DUP10 DUP5 MSTORE DUP11 DUP9 DUP6 ADD MSTORE PUSH1 0x40 DUP5 ADD MSTORE PUSH1 0x60 DUP4 ADD MSTORE PUSH2 0x1106 JUMP JUMPDEST PUSH2 0x1202 JUMP JUMPDEST SWAP12 PUSH1 0x40 MLOAD SWAP1 DUP2 MSTORE LOG3 SWAP1 DUP9 DUP1 DUP1 PUSH2 0xC14 JUMP JUMPDEST PUSH2 0xD1C SWAP2 POP DUP3 RETURNDATASIZE DUP5 GT PUSH2 0x37B JUMPI PUSH2 0x36D DUP2 DUP4 PUSH2 0x10CC JUMP JUMPDEST DUP13 PUSH2 0xC58 JUMP JUMPDEST POP CALLER PUSH1 0x0 MSTORE PUSH1 0x3 DUP2 MSTORE PUSH1 0x40 PUSH1 0x0 KECCAK256 DUP3 PUSH1 0x0 MSTORE DUP2 MSTORE PUSH1 0x40 PUSH1 0x0 KECCAK256 DUP4 PUSH1 0x0 MSTORE DUP2 MSTORE PUSH1 0xFF PUSH1 0x40 PUSH1 0x0 KECCAK256 SLOAD AND ISZERO PUSH2 0xC0F JUMP JUMPDEST SWAP1 DUP1 SWAP5 POP DUP2 DUP2 RETURNDATASIZE DUP4 GT PUSH2 0xD78 JUMPI JUMPDEST PUSH2 0xD68 DUP2 DUP4 PUSH2 0x10CC JUMP JUMPDEST DUP2 ADD SUB SLT PUSH2 0x147 JUMPI MLOAD SWAP3 DUP12 PUSH2 0xC05 JUMP JUMPDEST POP RETURNDATASIZE PUSH2 0xD5E JUMP JUMPDEST PUSH1 0x40 MLOAD PUSH3 0x461BCD PUSH1 0xE5 SHL DUP2 MSTORE PUSH1 0x20 PUSH1 0x4 DUP3 ADD MSTORE PUSH1 0x12 DUP2 DUP7 ADD MSTORE PUSH18 0x546F6F206D616E7920617070726F76616C73 PUSH1 0x70 SHL PUSH1 0x44 DUP3 ADD MSTORE PUSH1 0x64 SWAP1 REVERT JUMPDEST PUSH1 0x40 MLOAD PUSH3 0x461BCD PUSH1 0xE5 SHL DUP2 MSTORE PUSH1 0x20 PUSH1 0x4 DUP3 ADD MSTORE PUSH1 0xC DUP2 DUP7 ADD MSTORE PUSH12 0x456D70747920617272617973 PUSH1 0xA0 SHL PUSH1 0x44 DUP3 ADD MSTORE PUSH1 0x64 SWAP1 REVERT JUMPDEST CALLVALUE PUSH2 0x147 JUMPI PUSH1 0x60 CALLDATASIZE PUSH1 0x3 NOT ADD SLT PUSH2 0x147 JUMPI PUSH1 0x20 DUP2 PUSH2 0xE07 PUSH2 0xE9C JUMP JUMPDEST DUP2 DUP1 PUSH2 0xE44 PUSH2 0xE14 PUSH2 0xEB2 JUMP JUMPDEST SWAP4 PUSH2 0xE1D PUSH2 0xEC8 JUMP JUMPDEST PUSH4 0x6EB1769F PUSH1 0xE1 SHL DUP5 MSTORE PUSH1 0x1 PUSH1 0x1 PUSH1 0xA0 SHL SUB SWAP2 DUP3 AND PUSH1 0x4 DUP6 ADD MSTORE AND PUSH1 0x24 DUP4 ADD MSTORE PUSH1 0x44 DUP3 ADD SWAP1 JUMP JUMPDEST SUB SWAP2 PUSH1 0x1 PUSH1 0x1 PUSH1 0xA0 SHL SUB AND GAS STATICCALL DUP1 ISZERO PUSH2 0x382 JUMPI PUSH1 0x0 SWAP1 PUSH2 0xE6A JUMPI JUMPDEST PUSH1 0x20 SWAP1 PUSH1 0x40 MLOAD SWAP1 DUP2 MSTORE RETURN JUMPDEST POP PUSH1 0x20 DUP2 RETURNDATASIZE DUP3 GT PUSH2 0xE94 JUMPI JUMPDEST DUP2 PUSH2 0xE83 PUSH1 0x20 SWAP4 DUP4 PUSH2 0x10CC JUMP JUMPDEST DUP2 ADD SUB SLT PUSH2 0x147 JUMPI PUSH1 0x20 SWAP1 MLOAD PUSH2 0xE5F JUMP JUMPDEST RETURNDATASIZE SWAP2 POP PUSH2 0xE76 JUMP JUMPDEST PUSH1 0x4 CALLDATALOAD SWAP1 PUSH1 0x1 PUSH1 0x1 PUSH1 0xA0 SHL SUB DUP3 AND DUP3 SUB PUSH2 0x147 JUMPI JUMP JUMPDEST PUSH1 0x24 CALLDATALOAD SWAP1 PUSH1 0x1 PUSH1 0x1 PUSH1 0xA0 SHL SUB DUP3 AND DUP3 SUB PUSH2 0x147 JUMPI JUMP JUMPDEST PUSH1 0x44 CALLDATALOAD SWAP1 PUSH1 0x1 PUSH1 0x1 PUSH1 0xA0 SHL SUB DUP3 AND DUP3 SUB PUSH2 0x147 JUMPI JUMP JUMPDEST SWAP2 DUP2 PUSH1 0x1F DUP5 ADD SLT ISZERO PUSH2 0x147 JUMPI DUP3 CALLDATALOAD SWAP2 PUSH8 0xFFFFFFFFFFFFFFFF DUP4 GT PUSH2 0x147 JUMPI PUSH1 0x20 DUP1 DUP6 ADD SWAP5 DUP5 PUSH1 0x5 SHL ADD ADD GT PUSH2 0x147 JUMPI JUMP JUMPDEST SWAP1 PUSH1 0x60 PUSH1 0x3 NOT DUP4 ADD SLT PUSH2 0x147 JUMPI PUSH1 0x4 CALLDATALOAD PUSH1 0x1 PUSH1 0x1 PUSH1 0xA0 SHL SUB DUP2 AND DUP2 SUB PUSH2 0x147 JUMPI SWAP2 PUSH8 0xFFFFFFFFFFFFFFFF SWAP2 PUSH1 0x24 CALLDATALOAD DUP4 DUP2 GT PUSH2 0x147 JUMPI DUP3 PUSH2 0xF51 SWAP2 PUSH1 0x4 ADD PUSH2 0xEDE JUMP JUMPDEST SWAP4 SWAP1 SWAP4 SWAP3 PUSH1 0x44 CALLDATALOAD SWAP2 DUP3 GT PUSH2 0x147 JUMPI PUSH2 0xF6B SWAP2 PUSH1 0x4 ADD PUSH2 0xEDE JUMP JUMPDEST SWAP1 SWAP2 JUMP JUMPDEST DUP1 SLOAD DUP3 LT ISZERO PUSH2 0xF8B JUMPI PUSH1 0x0 MSTORE PUSH1 0x20 PUSH1 0x0 KECCAK256 SWAP1 PUSH1 0x2 SHL ADD SWAP1 PUSH1 0x0 SWAP1 JUMP JUMPDEST PUSH4 0x4E487B71 PUSH1 0xE0 SHL PUSH1 0x0 MSTORE PUSH1 0x32 PUSH1 0x4 MSTORE PUSH1 0x24 PUSH1 0x0 REVERT JUMPDEST SWAP1 DUP2 MLOAD DUP1 DUP3 MSTORE PUSH1 0x20 DUP1 DUP1 SWAP4 ADD SWAP4 ADD SWAP2 PUSH1 0x0 JUMPDEST DUP3 DUP2 LT PUSH2 0xFC1 JUMPI POP POP POP POP SWAP1 JUMP JUMPDEST DUP4 MLOAD PUSH1 0x1 PUSH1 0x1 PUSH1 0xA0 SHL SUB AND DUP6 MSTORE SWAP4 DUP2 ADD SWAP4 SWAP3 DUP2 ADD SWAP3 PUSH1 0x1 ADD PUSH2 0xFB3 JUMP JUMPDEST PUSH1 0x0 SLOAD PUSH1 0x1 PUSH1 0x1 PUSH1 0xA0 SHL SUB AND CALLER SUB PUSH2 0xFF2 JUMPI JUMP JUMPDEST PUSH1 0x40 MLOAD PUSH4 0x118CDAA7 PUSH1 0xE0 SHL DUP2 MSTORE CALLER PUSH1 0x4 DUP3 ADD MSTORE PUSH1 0x24 SWAP1 REVERT JUMPDEST ISZERO PUSH2 0x1011 JUMPI JUMP JUMPDEST PUSH1 0x40 MLOAD PUSH3 0x461BCD PUSH1 0xE5 SHL DUP2 MSTORE PUSH1 0x20 PUSH1 0x4 DUP3 ADD MSTORE PUSH1 0x15 PUSH1 0x24 DUP3 ADD MSTORE PUSH21 0x496E76616C696420746F6B656E2061646472657373 PUSH1 0x58 SHL PUSH1 0x44 DUP3 ADD MSTORE PUSH1 0x64 SWAP1 REVERT JUMPDEST ISZERO PUSH2 0x1055 JUMPI JUMP JUMPDEST PUSH1 0x40 MLOAD PUSH3 0x461BCD PUSH1 0xE5 SHL DUP2 MSTORE PUSH1 0x20 PUSH1 0x4 DUP3 ADD MSTORE PUSH1 0x17 PUSH1 0x24 DUP3 ADD MSTORE PUSH32 0x496E76616C6964207370656E6465722061646472657373000000000000000000 PUSH1 0x44 DUP3 ADD MSTORE PUSH1 0x64 SWAP1 REVERT JUMPDEST PUSH1 0x80 DUP2 ADD SWAP1 DUP2 LT PUSH8 0xFFFFFFFFFFFFFFFF DUP3 GT OR PUSH2 0x10B6 JUMPI PUSH1 0x40 MSTORE JUMP JUMPDEST PUSH4 0x4E487B71 PUSH1 0xE0 SHL PUSH1 0x0 MSTORE PUSH1 0x41 PUSH1 0x4 MSTORE PUSH1 0x24 PUSH1 0x0 REVERT JUMPDEST SWAP1 PUSH1 0x1F DUP1 NOT SWAP2 ADD AND DUP2 ADD SWAP1 DUP2 LT PUSH8 0xFFFFFFFFFFFFFFFF DUP3 GT OR PUSH2 0x10B6 JUMPI PUSH1 0x40 MSTORE JUMP JUMPDEST SWAP1 DUP2 PUSH1 0x20 SWAP2 SUB SLT PUSH2 0x147 JUMPI MLOAD DUP1 ISZERO ISZERO DUP2 SUB PUSH2 0x147 JUMPI SWAP1 JUMP JUMPDEST DUP1 SLOAD PUSH9 0x10000000000000000 DUP2 LT ISZERO PUSH2 0x10B6 JUMPI PUSH2 0x1128 SWAP2 PUSH1 0x1 DUP3 ADD DUP2 SSTORE PUSH2 0xF6F JUMP JUMPDEST PUSH2 0x1184 JUMPI PUSH1 0x3 PUSH1 0x60 SWAP2 PUSH1 0x1 DUP1 PUSH1 0xA0 SHL SUB DUP1 DUP6 MLOAD AND PUSH12 0xFFFFFFFFFFFFFFFFFFFFFFFF PUSH1 0xA0 SHL SWAP1 DUP2 DUP5 SLOAD AND OR DUP4 SSTORE PUSH1 0x1 DUP4 ADD SWAP2 PUSH1 0x20 DUP8 ADD MLOAD AND SWAP1 DUP3 SLOAD AND OR SWAP1 SSTORE PUSH1 0x40 DUP5 ADD MLOAD PUSH1 0x2 DUP3 ADD SSTORE ADD SWAP2 ADD MLOAD ISZERO ISZERO PUSH1 0xFF DUP1 NOT DUP4 SLOAD AND SWAP2 AND OR SWAP1 SSTORE JUMP JUMPDEST PUSH4 0x4E487B71 PUSH1 0xE0 SHL PUSH1 0x0 MSTORE PUSH1 0x0 PUSH1 0x4 MSTORE PUSH1 0x24 PUSH1 0x0 REVERT JUMPDEST PUSH1 0x2 PUSH1 0x1 SLOAD EQ PUSH2 0x11AB JUMPI PUSH1 0x2 PUSH1 0x1 SSTORE JUMP JUMPDEST PUSH1 0x40 MLOAD PUSH4 0x3EE5AEB5 PUSH1 0xE0 SHL DUP2 MSTORE PUSH1 0x4 SWAP1 REVERT JUMPDEST ISZERO PUSH2 0x11C4 JUMPI JUMP JUMPDEST PUSH1 0x40 MLOAD PUSH3 0x461BCD PUSH1 0xE5 SHL DUP2 MSTORE PUSH1 0x20 PUSH1 0x4 DUP3 ADD MSTORE PUSH1 0x16 PUSH1 0x24 DUP3 ADD MSTORE PUSH22 0x82E4E4C2F2E640D8CADCCEE8D040DAD2E6DAC2E8C6D PUSH1 0x53 SHL PUSH1 0x44 DUP3 ADD MSTORE PUSH1 0x64 SWAP1 REVERT JUMPDEST PUSH1 0x0 NOT DUP2 EQ PUSH2 0x687 JUMPI PUSH1 0x1 ADD SWAP1 JUMP JUMPDEST SWAP2 SWAP1 DUP2 LT ISZERO PUSH2 0xF8B JUMPI PUSH1 0x5 SHL ADD SWAP1 JUMP JUMPDEST CALLDATALOAD PUSH1 0x1 PUSH1 0x1 PUSH1 0xA0 SHL SUB DUP2 AND DUP2 SUB PUSH2 0x147 JUMPI SWAP1 JUMP JUMPDEST PUSH8 0xFFFFFFFFFFFFFFFF DUP2 GT PUSH2 0x10B6 JUMPI PUSH1 0x5 SHL PUSH1 0x20 ADD SWAP1 JUMP JUMPDEST SWAP2 SWAP4 SWAP1 PUSH2 0x125B DUP3 DUP7 EQ PUSH2 0x11BD JUMP JUMPDEST PUSH1 0x0 JUMPDEST DUP6 DUP2 LT PUSH2 0x1270 JUMPI POP POP POP POP POP POP PUSH1 0x0 SWAP1 JUMP JUMPDEST PUSH1 0x1 PUSH1 0x1 PUSH1 0xA0 SHL SUB PUSH2 0x1286 PUSH2 0x4D4 DUP4 DUP10 DUP7 PUSH2 0x1211 JUMP JUMPDEST AND PUSH2 0x1295 PUSH2 0x4D4 DUP4 DUP7 DUP10 PUSH2 0x1211 JUMP JUMPDEST PUSH1 0x40 DUP1 MLOAD PUSH4 0x6EB1769F PUSH1 0xE1 SHL DUP2 MSTORE PUSH1 0x1 PUSH1 0x1 PUSH1 0xA0 SHL SUB DUP9 DUP2 AND PUSH1 0x4 DUP4 ADD MSTORE SWAP3 SWAP1 SWAP3 AND PUSH1 0x24 DUP4 ADD MSTORE SWAP1 SWAP2 PUSH1 0x20 SWAP1 DUP2 SWAP1 DUP5 SWAP1 PUSH1 0x44 SWAP1 DUP3 SWAP1 GAS STATICCALL SWAP2 DUP3 ISZERO PUSH2 0x132B JUMPI POP PUSH1 0x0 SWAP2 PUSH2 0x12FC JUMPI JUMPDEST POP SWAP1 POP PUSH2 0x12F1 JUMPI PUSH2 0x12EC SWAP1 PUSH2 0x1202 JUMP JUMPDEST PUSH2 0x125E JUMP JUMPDEST POP POP POP POP POP POP PUSH1 0x1 SWAP1 JUMP JUMPDEST DUP3 DUP2 RETURNDATASIZE DUP4 GT PUSH2 0x1324 JUMPI JUMPDEST PUSH2 0x1310 DUP2 DUP4 PUSH2 0x10CC JUMP JUMPDEST DUP2 ADD SUB SLT PUSH2 0x1321 JUMPI POP MLOAD DUP1 CODESIZE PUSH2 0x12DC JUMP JUMPDEST DUP1 REVERT JUMPDEST POP RETURNDATASIZE PUSH2 0x1306 JUMP JUMPDEST MLOAD RETURNDATASIZE PUSH1 0x0 DUP3 RETURNDATACOPY RETURNDATASIZE SWAP1 REVERT JUMPDEST SWAP1 PUSH2 0x133F DUP3 PUSH2 0x1235 JUMP JUMPDEST PUSH2 0x134C PUSH1 0x40 MLOAD SWAP2 DUP3 PUSH2 0x10CC JUMP JUMPDEST DUP3 DUP2 MSTORE DUP1 SWAP3 PUSH2 0x135D PUSH1 0x1F NOT SWAP2 PUSH2 0x1235 JUMP JUMPDEST ADD SWAP1 PUSH1 0x20 CALLDATASIZE SWAP2 ADD CALLDATACOPY JUMP JUMPDEST DUP1 MLOAD DUP3 LT ISZERO PUSH2 0xF8B JUMPI PUSH1 0x20 SWAP2 PUSH1 0x5 SHL ADD ADD SWAP1 JUMP INVALID LOG2 PUSH5 0x6970667358 0x22 SLT KECCAK256 SLOAD 0x4F 0xB1 LOG2 PUSH16 0xB359455F357BB664C675AAAB04633803 NUMBER DUP11 0xC2 PUSH29 0xD6A45F7B6DF5A164736F6C634300081400330000000000000000000000 "},"methodIdentifiers":{"batchRevokeApprovals(address[],address[])":"1c2bc27b","emergencyRevoke(address,address,address)":"c835faa1","getActiveApprovalsSummary(address,address[],address[])":"c9e45af9","getApprovalCount(address)":"d8186b3b","getCurrentAllowance(address,address,address)":"03a2c9bc","getUserApprovals(address)":"73bfdb0a","hasActiveApprovals(address,address[],address[])":"733f769b","isApprovalRevoked(address,address,address)":"73b41532","isRevoked(address,address,address)":"8322a2aa","owner()":"8da5cb5b","renounceOwnership()":"715018a6","revokeApproval(address,address)":"d3bfe76a","transferOwnership(address)":"f2fde38b","userApprovals(address,uint256)":"a4832e65"}}}}}