{
  "_format": "hh-sol-artifact-1",
  "contractName": "GuardianController",
  "sourceName": "contracts/GuardianController.sol",
  "abi": [
    {
      "inputs": [
        {
          "internalType": "address",
          "name": "_smartAccount",
          "type": "address"
        }
      ],
      "stateMutability": "nonpayable",
      "type": "constructor"
    },
    {
      "inputs": [
        {
          "internalType": "address",
          "name": "owner",
          "type": "address"
        }
      ],
      "name": "OwnableInvalidOwner",
      "type": "error"
    },
    {
      "inputs": [
        {
          "internalType": "address",
          "name": "account",
          "type": "address"
        }
      ],
      "name": "OwnableUnauthorizedAccount",
      "type": "error"
    },
    {
      "inputs": [],
      "name": "ReentrancyGuardReentrantCall",
      "type": "error"
    },
    {
      "anonymous": false,
      "inputs": [
        {
          "indexed": true,
          "internalType": "address",
          "name": "guardian",
          "type": "address"
        },
        {
          "indexed": false,
          "internalType": "uint256",
          "name": "weight",
          "type": "uint256"
        }
      ],
      "name": "GuardianAdded",
      "type": "event"
    },
    {
      "anonymous": false,
      "inputs": [
        {
          "indexed": true,
          "internalType": "address",
          "name": "guardian",
          "type": "address"
        }
      ],
      "name": "GuardianRemoved",
      "type": "event"
    },
    {
      "anonymous": false,
      "inputs": [
        {
          "indexed": true,
          "internalType": "address",
          "name": "guardian",
          "type": "address"
        },
        {
          "indexed": false,
          "internalType": "uint256",
          "name": "newWeight",
          "type": "uint256"
        }
      ],
      "name": "GuardianWeightUpdated",
      "type": "event"
    },
    {
      "anonymous": false,
      "inputs": [
        {
          "indexed": true,
          "internalType": "address",
          "name": "previousOwner",
          "type": "address"
        },
        {
          "indexed": true,
          "internalType": "address",
          "name": "newOwner",
          "type": "address"
        }
      ],
      "name": "OwnershipTransferred",
      "type": "event"
    },
    {
      "anonymous": false,
      "inputs": [
        {
          "indexed": true,
          "internalType": "address",
          "name": "guardian",
          "type": "address"
        },
        {
          "indexed": true,
          "internalType": "address",
          "name": "newSigner",
          "type": "address"
        }
      ],
      "name": "RecoveryApproved",
      "type": "event"
    },
    {
      "anonymous": false,
      "inputs": [],
      "name": "RecoveryCancelled",
      "type": "event"
    },
    {
      "anonymous": false,
      "inputs": [
        {
          "indexed": true,
          "internalType": "address",
          "name": "oldSigner",
          "type": "address"
        },
        {
          "indexed": true,
          "internalType": "address",
          "name": "newSigner",
          "type": "address"
        }
      ],
      "name": "RecoveryExecuted",
      "type": "event"
    },
    {
      "anonymous": false,
      "inputs": [
        {
          "indexed": true,
          "internalType": "address",
          "name": "newSigner",
          "type": "address"
        },
        {
          "indexed": false,
          "internalType": "uint256",
          "name": "timestamp",
          "type": "uint256"
        }
      ],
      "name": "RecoveryInitiated",
      "type": "event"
    },
    {
      "inputs": [
        {
          "internalType": "address",
          "name": "_guardian",
          "type": "address"
        },
        {
          "internalType": "uint256",
          "name": "_weight",
          "type": "uint256"
        }
      ],
      "name": "addGuardian",
      "outputs": [],
      "stateMutability": "nonpayable",
      "type": "function"
    },
    {
      "inputs": [
        {
          "internalType": "address",
          "name": "_newSigner",
          "type": "address"
        }
      ],
      "name": "approveRecovery",
      "outputs": [],
      "stateMutability": "nonpayable",
      "type": "function"
    },
    {
      "inputs": [],
      "name": "cancelRecovery",
      "outputs": [],
      "stateMutability": "nonpayable",
      "type": "function"
    },
    {
      "inputs": [],
      "name": "currentRecovery",
      "outputs": [
        {
          "internalType": "address",
          "name": "newSigner",
          "type": "address"
        },
        {
          "internalType": "uint256",
          "name": "timestamp",
          "type": "uint256"
        },
        {
          "internalType": "bool",
          "name": "executed",
          "type": "bool"
        },
        {
          "internalType": "uint256",
          "name": "approvalCount",
          "type": "uint256"
        }
      ],
      "stateMutability": "view",
      "type": "function"
    },
    {
      "inputs": [],
      "name": "getAllGuardians",
      "outputs": [
        {
          "internalType": "address[]",
          "name": "",
          "type": "address[]"
        }
      ],
      "stateMutability": "view",
      "type": "function"
    },
    {
      "inputs": [
        {
          "internalType": "address",
          "name": "_guardian",
          "type": "address"
        }
      ],
      "name": "getGuardianInfo",
      "outputs": [
        {
          "internalType": "bool",
          "name": "isActive",
          "type": "bool"
        },
        {
          "internalType": "uint256",
          "name": "weight",
          "type": "uint256"
        },
        {
          "internalType": "uint256",
          "name": "lastActive",
          "type": "uint256"
        }
      ],
      "stateMutability": "view",
      "type": "function"
    },
    {
      "inputs": [],
      "name": "getRecoveryStatus",
      "outputs": [
        {
          "internalType": "address",
          "name": "newSigner",
          "type": "address"
        },
        {
          "internalType": "uint256",
          "name": "timestamp",
          "type": "uint256"
        },
        {
          "internalType": "bool",
          "name": "executed",
          "type": "bool"
        },
        {
          "internalType": "uint256",
          "name": "approvalCount",
          "type": "uint256"
        },
        {
          "internalType": "bool",
          "name": "inProgress",
          "type": "bool"
        }
      ],
      "stateMutability": "view",
      "type": "function"
    },
    {
      "inputs": [
        {
          "internalType": "uint256",
          "name": "",
          "type": "uint256"
        }
      ],
      "name": "guardianList",
      "outputs": [
        {
          "internalType": "address",
          "name": "",
          "type": "address"
        }
      ],
      "stateMutability": "view",
      "type": "function"
    },
    {
      "inputs": [
        {
          "internalType": "address",
          "name": "",
          "type": "address"
        }
      ],
      "name": "guardians",
      "outputs": [
        {
          "internalType": "address",
          "name": "guardian",
          "type": "address"
        },
        {
          "internalType": "bool",
          "name": "isActive",
          "type": "bool"
        },
        {
          "internalType": "uint256",
          "name": "weight",
          "type": "uint256"
        },
        {
          "internalType": "uint256",
          "name": "lastActive",
          "type": "uint256"
        }
      ],
      "stateMutability": "view",
      "type": "function"
    },
    {
      "inputs": [
        {
          "internalType": "address",
          "name": "_guardian",
          "type": "address"
        }
      ],
      "name": "hasGuardianApproved",
      "outputs": [
        {
          "internalType": "bool",
          "name": "",
          "type": "bool"
        }
      ],
      "stateMutability": "view",
      "type": "function"
    },
    {
      "inputs": [
        {
          "internalType": "address",
          "name": "_newSigner",
          "type": "address"
        }
      ],
      "name": "initiateRecovery",
      "outputs": [],
      "stateMutability": "nonpayable",
      "type": "function"
    },
    {
      "inputs": [],
      "name": "owner",
      "outputs": [
        {
          "internalType": "address",
          "name": "",
          "type": "address"
        }
      ],
      "stateMutability": "view",
      "type": "function"
    },
    {
      "inputs": [],
      "name": "recoveryDelay",
      "outputs": [
        {
          "internalType": "uint256",
          "name": "",
          "type": "uint256"
        }
      ],
      "stateMutability": "view",
      "type": "function"
    },
    {
      "inputs": [],
      "name": "recoveryInProgress",
      "outputs": [
        {
          "internalType": "bool",
          "name": "",
          "type": "bool"
        }
      ],
      "stateMutability": "view",
      "type": "function"
    },
    {
      "inputs": [
        {
          "internalType": "address",
          "name": "_guardian",
          "type": "address"
        }
      ],
      "name": "removeGuardian",
      "outputs": [],
      "stateMutability": "nonpayable",
      "type": "function"
    },
    {
      "inputs": [],
      "name": "renounceOwnership",
      "outputs": [],
      "stateMutability": "nonpayable",
      "type": "function"
    },
    {
      "inputs": [],
      "name": "requiredWeight",
      "outputs": [
        {
          "internalType": "uint256",
          "name": "",
          "type": "uint256"
        }
      ],
      "stateMutability": "view",
      "type": "function"
    },
    {
      "inputs": [],
      "name": "totalGuardianWeight",
      "outputs": [
        {
          "internalType": "uint256",
          "name": "",
          "type": "uint256"
        }
      ],
      "stateMutability": "view",
      "type": "function"
    },
    {
      "inputs": [
        {
          "internalType": "address",
          "name": "newOwner",
          "type": "address"
        }
      ],
      "name": "transferOwnership",
      "outputs": [],
      "stateMutability": "nonpayable",
      "type": "function"
    },
    {
      "inputs": [
        {
          "internalType": "address",
          "name": "_guardian",
          "type": "address"
        },
        {
          "internalType": "uint256",
          "name": "_newWeight",
          "type": "uint256"
        }
      ],
      "name": "updateGuardianWeight",
      "outputs": [],
      "stateMutability": "nonpayable",
      "type": "function"
    }
  ],
  "bytecode": "0x6080346100ca57601f61107738819003918201601f19168301916001600160401b038311848410176100cf578084926020946040528339810103126100ca57516001600160a01b0390818116908190036100ca5780156100b157600080546001600160a01b03198116831782556040519316907f8be0079c531659141344cd1fd0a4f28419497f9722a3daafe3b4186f6b6457e09080a360018055610e106006556002600555610f9190816100e68239f35b604051631e4fbdf760e01b815260006004820152602490fd5b600080fd5b634e487b7160e01b600052604160045260246000fdfe6080604081815260048036101561001557600080fd5b600092833560e01c9081630633b14a14610cf6575080630ba234d614610ca0578063111e531314610aef57806311448b4014610a75578063124f8d9c14610a215780631415078e14610a025780633758ca7a146109e35780635ec005fa146109a35780637140415614610802578063715018a6146107a857806374a2bc0a1461076a5780638da5cb5b14610742578063adb0c9c414610696578063b9b87df0146105a3578063cbc3b3c21461036e578063d5ce9aad146101e2578063db16330d146101be578063dfad4115146101a1578063e8f0a74f146101575763f2fde38b146100ff57600080fd5b3461015357602036600319011261015357610118610d54565b91610121610dbc565b6001600160a01b0383161561013d578361013a84610de8565b80f35b51631e4fbdf760e01b8152908101839052602490fd5b8280fd5b50503461019d578160031936011261019d5760809060018060a01b0360075416906008549060ff60095416600b5492825194855260208501521515908301526060820152f35b5080fd5b503461015357826003193601126101535760209250549051908152f35b50503461019d578160031936011261019d5760209060ff600c541690519015158152f35b509034610153576020908160031936011261036a576101ff610d54565b923385526002835261021960ff8387205460a01c16610ed2565b600c549060ff8216610327576001600160a01b039485169485156102ef5786541685146102a15750907f8a9bdbd6fa6536bd7e02875d089a0604de2d92780294abc78536d93fd6c95b7c9291600160ff1980921617600c55846bffffffffffffffffffffffff60a01b6007541617600755426008556009541660095584600b5551428152a280f35b825162461bcd60e51b8152908101849052602260248201527f4e6577207369676e65722063616e6e6f742062652063757272656e74206f776e60448201526132b960f11b6064820152608490fd5b835162461bcd60e51b8152808301869052601260248201527124b73b30b634b2103732bb9039b4b3b732b960711b6044820152606490fd5b825162461bcd60e51b8152908101849052601c60248201527f5265636f7665727920616c726561647920696e2070726f6772657373000000006044820152606490fd5b8380fd5b509034610153576020908160031936011261036a5761038b610d54565b338552600283526103a460ff8387205460a01c16610ed2565b6103b260ff600c5416610f0f565b6007546001600160a01b03939184169190841682900361056b57338652600a815260ff8387205416610536576103ed60085460065490610e61565b42106104fb57338652600a81528286209260ff19936001858254161790556002825261042160018289200154600b54610e61565b9081600b555192337f10c6775f0265d0cb459912547a8aaffb6c41c309be8482a12a66ed15774f7ea58980a3600554111561045a578580f35b6009549460ff86166104bc5750505060018183865416941617600955600c5416600c5561048a8160075416610de8565b60075416907f60f9f98be64687700419cfa6fdd7877bc88c6daeb10bc664a2be9fdd6b0c79218380a338808080808580f35b62461bcd60e51b8352820152601960248201527f5265636f7665727920616c726561647920657865637574656400000000000000604482015260649150fd5b8460649184519162461bcd60e51b83528201526016602482015275149958dbdd995c9e4819195b185e481b9bdd081b595d60521b6044820152fd5b8460649184519162461bcd60e51b8352820152601060248201526f105b1c9958591e48185c1c1c9bdd995960821b6044820152fd5b8460649184519162461bcd60e51b8352820152601360248201527209ccaee40e6d2cedccae440dad2e6dac2e8c6d606b1b6044820152fd5b509134610693578060031936011261069357815180916003549384835260208093018095600384527fc2575a0e9e593c00f959f8c92f12db2869c3395a3b0502d05e2516446f71f85b90845b868282106106765750505050849003601f01601f191684019567ffffffffffffffff871185881017610663575085815282865292518583018190528594938501939290915b82811061064357505050500390f35b83516001600160a01b031685528695509381019392810192600101610634565b634e487b7160e01b835260419052602482fd5b83546001600160a01b0316855290930192600192830192016105ef565b80fd5b50903461015357806003193601126101535760207ff329a84df901800b22b99dc49239118ed5ea5d51d56a0c8e7c33fbf16e6340ad916106d4610d54565b90602435916106e1610dbc565b6001600160a01b031680875260028452818720549095906107079060a01c60ff16610e84565b610729836107248354898b52600288526001868c20015490610ec5565b610e61565b905584865260028352816001828820015551908152a280f35b50503461019d578160031936011261019d57905490516001600160a01b039091168152602090f35b50503461019d57602036600319011261019d5760209160ff9082906001600160a01b03610795610d54565b168152600a855220541690519015158152f35b83346106935780600319360112610693576107c1610dbc565b80546001600160a01b03198116825581906001600160a01b03167f8be0079c531659141344cd1fd0a4f28419497f9722a3daafe3b4186f6b6457e08280a380f35b5090346101535760203660031901126101535761081d610d54565b91610826610dbc565b6001600160a01b0392831680855260026020528285205490939061084f9060a01c60ff16610e84565b838552600260205260019261086a8482882001548454610ec5565b835584865260026020528520805460ff60a01b1916905584835b6108b2575b85857fb8107d0c6b40be480ce3172ee66ba6d64b71f6b1685a851340036e6e2e3e3c528280a280f35b600380548083101561099c5786846108c985610d6f565b905490851b1c16146108fb57505060001981146108e857830183610884565b634e487b7160e01b865260118352602486fd5b929450929060001992838101908111610989579061092c8661091f61094b94610d6f565b905490881b1c1691610d6f565b90919082549060031b9160018060a01b03809116831b921b1916179055565b82549081156109765750019161096083610d6f565b9091825491841b1b191690555538808080610889565b634e487b7160e01b875260319052602486fd5b634e487b7160e01b885260118352602488fd5b5050610889565b503461015357602036600319011261015357359160035483101561069357506109cd602092610d6f565b60018060a01b0391549060031b1c169051908152f35b50503461019d578160031936011261019d576020906006549051908152f35b50503461019d578160031936011261019d576020906005549051908152f35b50503461019d578160031936011261019d5760a090600180831b0360075416906008549060ff6009541690600b549160ff600c54169382519586526020860152151590840152606083015215156080820152f35b50503461019d57602036600319011261019d576060916001600160a01b03918391819084610aa1610d54565b16815260026020522060ff825194610ab886610e2f565b8254908116865260a01c16151593846020820152600260018301549283858401520154938491015281519384526020840152820152f35b5091903461019d578060031936011261019d57610b0a610d54565b9060243590610b17610dbc565b6001600160a01b0383811693908415610c5d57848652600260205260ff8387205460a01c16610c1a576002835191610b4e83610e2f565b8683526020830160018152858401908782526060850192428452898b5284602052878b2095511685549160ff60a01b9051151560a01b16916affffffffffffffffffffff60a81b16171784555160018401555191015560035468010000000000000000811015610c07579186610bf27f6276832b43b1ca1eab9c38b577dc5ba939a807f5ca7b7e5b6f1f09e80e487fad959361092c86600160209801600355610d6f565b610bfd838254610e61565b905551908152a280f35b634e487b7160e01b865260418752602486fd5b825162461bcd60e51b8152602081890152601760248201527f477561726469616e20616c7265616479206578697374730000000000000000006044820152606490fd5b825162461bcd60e51b8152602081890152601860248201527f496e76616c696420677561726469616e206164647265737300000000000000006044820152606490fd5b8334610693578060031936011261069357610cb9610dbc565b600c54610cc860ff8216610f0f565b60ff1916600c557fedd770ee01b7c0ef4f503125eafdc2725536cbf32342dffcaa300d95a7cafce38180a180f35b84908434610153576020366003190112610153576080926001600160a01b039190819083610d22610d54565b1681526002602052209060ff825460026001850154940154948116865260a01c16151560208501528301526060820152f35b600435906001600160a01b0382168203610d6a57565b600080fd5b600354811015610da65760036000527fc2575a0e9e593c00f959f8c92f12db2869c3395a3b0502d05e2516446f71f85b0190600090565b634e487b7160e01b600052603260045260246000fd5b6000546001600160a01b03163303610dd057565b60405163118cdaa760e01b8152336004820152602490fd5b600080546001600160a01b039283166001600160a01b03198216811783559216907f8be0079c531659141344cd1fd0a4f28419497f9722a3daafe3b4186f6b6457e09080a3565b6080810190811067ffffffffffffffff821117610e4b57604052565b634e487b7160e01b600052604160045260246000fd5b91908201809211610e6e57565b634e487b7160e01b600052601160045260246000fd5b15610e8b57565b60405162461bcd60e51b815260206004820152601260248201527111dd585c991a585b881b9bdd08199bdd5b9960721b6044820152606490fd5b91908203918211610e6e57565b15610ed957565b60405162461bcd60e51b815260206004820152600e60248201526d2737ba10309033bab0b93234b0b760911b6044820152606490fd5b15610f1657565b60405162461bcd60e51b815260206004820152601760248201527f4e6f207265636f7665727920696e2070726f67726573730000000000000000006044820152606490fdfea264697066735822122000b0d081aa1f64b9a7ebf05593c1137fad03bece0a6d386d4dd5cb24c5867f7264736f6c63430008140033",
  "linkReferences": {},
  "deployedLinkReferences": {}
}